{
  "_format": "hh-sol-artifact-1",
  "contractName": "EventMinter",
  "sourceName": "contracts/eventMinter.sol",
  "abi": [
    {
      "inputs": [],
      "stateMutability": "nonpayable",
      "type": "constructor"
    },
    {
      "anonymous": false,
      "inputs": [
        {
          "indexed": true,
          "internalType": "address",
          "name": "account",
          "type": "address"
        },
        {
          "indexed": true,
          "internalType": "address",
          "name": "operator",
          "type": "address"
        },
        {
          "indexed": false,
          "internalType": "bool",
          "name": "approved",
          "type": "bool"
        }
      ],
      "name": "ApprovalForAll",
      "type": "event"
    },
    {
      "anonymous": false,
      "inputs": [
        {
          "indexed": true,
          "internalType": "address",
          "name": "operator",
          "type": "address"
        },
        {
          "indexed": true,
          "internalType": "address",
          "name": "from",
          "type": "address"
        },
        {
          "indexed": true,
          "internalType": "address",
          "name": "to",
          "type": "address"
        },
        {
          "indexed": false,
          "internalType": "uint256[]",
          "name": "ids",
          "type": "uint256[]"
        },
        {
          "indexed": false,
          "internalType": "uint256[]",
          "name": "values",
          "type": "uint256[]"
        }
      ],
      "name": "TransferBatch",
      "type": "event"
    },
    {
      "anonymous": false,
      "inputs": [
        {
          "indexed": true,
          "internalType": "address",
          "name": "operator",
          "type": "address"
        },
        {
          "indexed": true,
          "internalType": "address",
          "name": "from",
          "type": "address"
        },
        {
          "indexed": true,
          "internalType": "address",
          "name": "to",
          "type": "address"
        },
        {
          "indexed": false,
          "internalType": "uint256",
          "name": "id",
          "type": "uint256"
        },
        {
          "indexed": false,
          "internalType": "uint256",
          "name": "value",
          "type": "uint256"
        }
      ],
      "name": "TransferSingle",
      "type": "event"
    },
    {
      "anonymous": false,
      "inputs": [
        {
          "indexed": false,
          "internalType": "string",
          "name": "value",
          "type": "string"
        },
        {
          "indexed": true,
          "internalType": "uint256",
          "name": "id",
          "type": "uint256"
        }
      ],
      "name": "URI",
      "type": "event"
    },
    {
      "inputs": [
        {
          "internalType": "address",
          "name": "account",
          "type": "address"
        },
        {
          "internalType": "uint256",
          "name": "id",
          "type": "uint256"
        }
      ],
      "name": "balanceOf",
      "outputs": [
        {
          "internalType": "uint256",
          "name": "",
          "type": "uint256"
        }
      ],
      "stateMutability": "view",
      "type": "function"
    },
    {
      "inputs": [
        {
          "internalType": "address[]",
          "name": "accounts",
          "type": "address[]"
        },
        {
          "internalType": "uint256[]",
          "name": "ids",
          "type": "uint256[]"
        }
      ],
      "name": "balanceOfBatch",
      "outputs": [
        {
          "internalType": "uint256[]",
          "name": "",
          "type": "uint256[]"
        }
      ],
      "stateMutability": "view",
      "type": "function"
    },
    {
      "inputs": [
        {
          "internalType": "uint256",
          "name": "_eventId",
          "type": "uint256"
        }
      ],
      "name": "claim",
      "outputs": [
        {
          "internalType": "bool",
          "name": "",
          "type": "bool"
        }
      ],
      "stateMutability": "payable",
      "type": "function"
    },
    {
      "inputs": [],
      "name": "eventIds",
      "outputs": [
        {
          "internalType": "uint256",
          "name": "_value",
          "type": "uint256"
        }
      ],
      "stateMutability": "view",
      "type": "function"
    },
    {
      "inputs": [
        {
          "internalType": "uint256",
          "name": "",
          "type": "uint256"
        }
      ],
      "name": "events",
      "outputs": [
        {
          "internalType": "string",
          "name": "URI",
          "type": "string"
        },
        {
          "internalType": "address payable",
          "name": "organizer",
          "type": "address"
        }
      ],
      "stateMutability": "view",
      "type": "function"
    },
    {
      "inputs": [
        {
          "internalType": "address",
          "name": "user",
          "type": "address"
        }
      ],
      "name": "getIds",
      "outputs": [
        {
          "internalType": "uint256[]",
          "name": "",
          "type": "uint256[]"
        }
      ],
      "stateMutability": "view",
      "type": "function"
    },
    {
      "inputs": [
        {
          "internalType": "address",
          "name": "account",
          "type": "address"
        },
        {
          "internalType": "address",
          "name": "operator",
          "type": "address"
        }
      ],
      "name": "isApprovedForAll",
      "outputs": [
        {
          "internalType": "bool",
          "name": "",
          "type": "bool"
        }
      ],
      "stateMutability": "view",
      "type": "function"
    },
    {
      "inputs": [
        {
          "internalType": "uint256",
          "name": "_quantity",
          "type": "uint256"
        },
        {
          "internalType": "string",
          "name": "_URI",
          "type": "string"
        }
      ],
      "name": "mintNFT",
      "outputs": [
        {
          "internalType": "uint256",
          "name": "",
          "type": "uint256"
        }
      ],
      "stateMutability": "nonpayable",
      "type": "function"
    },
    {
      "inputs": [
        {
          "internalType": "address",
          "name": "",
          "type": "address"
        },
        {
          "internalType": "address",
          "name": "",
          "type": "address"
        },
        {
          "internalType": "uint256[]",
          "name": "",
          "type": "uint256[]"
        },
        {
          "internalType": "uint256[]",
          "name": "",
          "type": "uint256[]"
        },
        {
          "internalType": "bytes",
          "name": "",
          "type": "bytes"
        }
      ],
      "name": "onERC1155BatchReceived",
      "outputs": [
        {
          "internalType": "bytes4",
          "name": "",
          "type": "bytes4"
        }
      ],
      "stateMutability": "nonpayable",
      "type": "function"
    },
    {
      "inputs": [
        {
          "internalType": "address",
          "name": "",
          "type": "address"
        },
        {
          "internalType": "address",
          "name": "",
          "type": "address"
        },
        {
          "internalType": "uint256",
          "name": "",
          "type": "uint256"
        },
        {
          "internalType": "uint256",
          "name": "",
          "type": "uint256"
        },
        {
          "internalType": "bytes",
          "name": "",
          "type": "bytes"
        }
      ],
      "name": "onERC1155Received",
      "outputs": [
        {
          "internalType": "bytes4",
          "name": "",
          "type": "bytes4"
        }
      ],
      "stateMutability": "nonpayable",
      "type": "function"
    },
    {
      "inputs": [
        {
          "internalType": "address",
          "name": "from",
          "type": "address"
        },
        {
          "internalType": "address",
          "name": "to",
          "type": "address"
        },
        {
          "internalType": "uint256[]",
          "name": "ids",
          "type": "uint256[]"
        },
        {
          "internalType": "uint256[]",
          "name": "amounts",
          "type": "uint256[]"
        },
        {
          "internalType": "bytes",
          "name": "data",
          "type": "bytes"
        }
      ],
      "name": "safeBatchTransferFrom",
      "outputs": [],
      "stateMutability": "nonpayable",
      "type": "function"
    },
    {
      "inputs": [
        {
          "internalType": "address",
          "name": "from",
          "type": "address"
        },
        {
          "internalType": "address",
          "name": "to",
          "type": "address"
        },
        {
          "internalType": "uint256",
          "name": "id",
          "type": "uint256"
        },
        {
          "internalType": "uint256",
          "name": "amount",
          "type": "uint256"
        },
        {
          "internalType": "bytes",
          "name": "data",
          "type": "bytes"
        }
      ],
      "name": "safeTransferFrom",
      "outputs": [],
      "stateMutability": "nonpayable",
      "type": "function"
    },
    {
      "inputs": [
        {
          "internalType": "address",
          "name": "operator",
          "type": "address"
        },
        {
          "internalType": "bool",
          "name": "approved",
          "type": "bool"
        }
      ],
      "name": "setApprovalForAll",
      "outputs": [],
      "stateMutability": "nonpayable",
      "type": "function"
    },
    {
      "inputs": [
        {
          "internalType": "bytes4",
          "name": "interfaceId",
          "type": "bytes4"
        }
      ],
      "name": "supportsInterface",
      "outputs": [
        {
          "internalType": "bool",
          "name": "",
          "type": "bool"
        }
      ],
      "stateMutability": "view",
      "type": "function"
    },
    {
      "inputs": [
        {
          "internalType": "uint256",
          "name": "_tokenId",
          "type": "uint256"
        }
      ],
      "name": "tokenURI",
      "outputs": [
        {
          "internalType": "string",
          "name": "",
          "type": "string"
        }
      ],
      "stateMutability": "view",
      "type": "function"
    },
    {
      "inputs": [
        {
          "internalType": "uint256",
          "name": "",
          "type": "uint256"
        }
      ],
      "name": "uri",
      "outputs": [
        {
          "internalType": "string",
          "name": "",
          "type": "string"
        }
      ],
      "stateMutability": "view",
      "type": "function"
    }
  ],
  "bytecode": "0x60806040523480156200001157600080fd5b506040518060200160405280600081525062000033816200007b60201b60201c565b5033600360006101000a81548173ffffffffffffffffffffffffffffffffffffffff021916908373ffffffffffffffffffffffffffffffffffffffff160217905550620001ac565b80600290805190602001906200009392919062000097565b5050565b828054620000a59062000147565b90600052602060002090601f016020900481019282620000c9576000855562000115565b82601f10620000e457805160ff191683800117855562000115565b8280016001018555821562000115579182015b8281111562000114578251825591602001919060010190620000f7565b5b50905062000124919062000128565b5090565b5b808211156200014357600081600090555060010162000129565b5090565b600060028204905060018216806200016057607f821691505b602082108114156200017757620001766200017d565b5b50919050565b7f4e487b7100000000000000000000000000000000000000000000000000000000600052602260045260246000fd5b6132de80620001bc6000396000f3fe6080604052600436106100f25760003560e01c80634e1273f41161008a578063c87b56dd11610059578063c87b56dd1461038d578063e985e9c5146103ca578063f23a6e6114610407578063f242432a14610444576100f2565b80634e1273f4146102bf57806378883077146102fc578063a22cb46514610327578063bc197c8114610350576100f2565b80631a0c8fa0116100c65780631a0c8fa0146101ec5780632671b0d8146102295780632eb2c2d614610266578063379607f51461028f576100f2565b8062fdd58e146100f757806301ffc9a7146101345780630b791430146101715780630e89341c146101af575b600080fd5b34801561010357600080fd5b5061011e6004803603810190610119919061227d565b61046d565b60405161012b91906129fd565b60405180910390f35b34801561014057600080fd5b5061015b60048036038101906101569190612325565b610536565b60405161016891906127f5565b60405180910390f35b34801561017d57600080fd5b5061019860048036038101906101939190612377565b610548565b6040516101a692919061284d565b60405180910390f35b3480156101bb57600080fd5b506101d660048036038101906101d19190612377565b610614565b6040516101e3919061282b565b60405180910390f35b3480156101f857600080fd5b50610213600480360381019061020e91906123a0565b6106a8565b60405161022091906129fd565b60405180910390f35b34801561023557600080fd5b50610250600480360381019061024b919061208e565b610796565b60405161025d919061279c565b60405180910390f35b34801561027257600080fd5b5061028d600480360381019061028891906120f3565b61082d565b005b6102a960048036038101906102a49190612377565b6108ce565b6040516102b691906127f5565b60405180910390f35b3480156102cb57600080fd5b506102e660048036038101906102e191906122b9565b6109cb565b6040516102f3919061279c565b60405180910390f35b34801561030857600080fd5b50610311610b7c565b60405161031e91906129fd565b60405180910390f35b34801561033357600080fd5b5061034e60048036038101906103499190612241565b610b88565b005b34801561035c57600080fd5b50610377600480360381019061037291906120f3565b610b9e565b6040516103849190612810565b60405180910390f35b34801561039957600080fd5b506103b460048036038101906103af9190612377565b610bb3565b6040516103c1919061282b565b60405180910390f35b3480156103d657600080fd5b506103f160048036038101906103ec91906120b7565b610c5b565b6040516103fe91906127f5565b60405180910390f35b34801561041357600080fd5b5061042e600480360381019061042991906121b2565b610cef565b60405161043b9190612810565b60405180910390f35b34801561045057600080fd5b5061046b600480360381019061046691906121b2565b610d04565b005b60008073ffffffffffffffffffffffffffffffffffffffff168373ffffffffffffffffffffffffffffffffffffffff1614156104de576040517f08c379a00000000000000000000000000000000000000000000000000000000081526004016104d5906128bd565b60405180910390fd5b60008083815260200190815260200160002060008473ffffffffffffffffffffffffffffffffffffffff1673ffffffffffffffffffffffffffffffffffffffff16815260200190815260200160002054905092915050565b600061054182610da5565b9050919050565b600560205280600052604060002060009150905080600001805461056b90612caf565b80601f016020809104026020016040519081016040528092919081815260200182805461059790612caf565b80156105e45780601f106105b9576101008083540402835291602001916105e4565b820191906000526020600020905b8154815290600101906020018083116105c757829003601f168201915b5050505050908060010160009054906101000a900473ffffffffffffffffffffffffffffffffffffffff16905082565b60606002805461062390612caf565b80601f016020809104026020016040519081016040528092919081815260200182805461064f90612caf565b801561069c5780601f106106715761010080835404028352916020019161069c565b820191906000526020600020905b81548152906001019060200180831161067f57829003601f168201915b50505050509050919050565b6000806106b56004610e1f565b905060405180604001604052808481526020013373ffffffffffffffffffffffffffffffffffffffff16815250600560008381526020019081526020016000206000820151816000019080519060200190610711929190611d86565b5060208201518160010160006101000a81548173ffffffffffffffffffffffffffffffffffffffff021916908373ffffffffffffffffffffffffffffffffffffffff16021790555090505061077730828660405180602001604052806000815250610e2d565b610782306001610b88565b61078c6004610fde565b8091505092915050565b6060600660008373ffffffffffffffffffffffffffffffffffffffff1673ffffffffffffffffffffffffffffffffffffffff16815260200190815260200160002080548060200260200160405190810160405280929190818152602001828054801561082157602002820191906000526020600020905b81548152602001906001019080831161080d575b50505050509050919050565b610835610ff4565b73ffffffffffffffffffffffffffffffffffffffff168573ffffffffffffffffffffffffffffffffffffffff16148061087b575061087a85610875610ff4565b610c5b565b5b6108ba576040517f08c379a00000000000000000000000000000000000000000000000000000000081526004016108b19061291d565b60405180910390fd5b6108c78585858585610ffc565b5050505050565b60008073ffffffffffffffffffffffffffffffffffffffff163373ffffffffffffffffffffffffffffffffffffffff16141561093f576040517f08c379a00000000000000000000000000000000000000000000000000000000081526004016109369061293d565b60405180910390fd5b61095c30338460016040518060200160405280600081525061136a565b600660003373ffffffffffffffffffffffffffffffffffffffff1673ffffffffffffffffffffffffffffffffffffffff16815260200190815260200160002082908060018154018082558091505060019003906000526020600020016000909190919091505560019050919050565b60608151835114610a11576040517f08c379a0000000000000000000000000000000000000000000000000000000008152600401610a089061299d565b60405180910390fd5b6000835167ffffffffffffffff811115610a54577f4e487b7100000000000000000000000000000000000000000000000000000000600052604160045260246000fd5b604051908082528060200260200182016040528015610a825781602001602082028036833780820191505090505b50905060005b8451811015610b7157610b1b858281518110610acd577f4e487b7100000000000000000000000000000000000000000000000000000000600052603260045260246000fd5b6020026020010151858381518110610b0e577f4e487b7100000000000000000000000000000000000000000000000000000000600052603260045260246000fd5b602002602001015161046d565b828281518110610b54577f4e487b7100000000000000000000000000000000000000000000000000000000600052603260045260246000fd5b60200260200101818152505080610b6a90612d12565b9050610a88565b508091505092915050565b60048060000154905081565b610b9a610b93610ff4565b8383611606565b5050565b600063bc197c8160e01b905095945050505050565b6060600560008381526020019081526020016000206000018054610bd690612caf565b80601f0160208091040260200160405190810160405280929190818152602001828054610c0290612caf565b8015610c4f5780601f10610c2457610100808354040283529160200191610c4f565b820191906000526020600020905b815481529060010190602001808311610c3257829003601f168201915b50505050509050919050565b6000600160008473ffffffffffffffffffffffffffffffffffffffff1673ffffffffffffffffffffffffffffffffffffffff16815260200190815260200160002060008373ffffffffffffffffffffffffffffffffffffffff1673ffffffffffffffffffffffffffffffffffffffff16815260200190815260200160002060009054906101000a900460ff16905092915050565b600063f23a6e6160e01b905095945050505050565b610d0c610ff4565b73ffffffffffffffffffffffffffffffffffffffff168573ffffffffffffffffffffffffffffffffffffffff161480610d525750610d5185610d4c610ff4565b610c5b565b5b610d91576040517f08c379a0000000000000000000000000000000000000000000000000000000008152600401610d88906128dd565b60405180910390fd5b610d9e858585858561136a565b5050505050565b60007f4e2312e0000000000000000000000000000000000000000000000000000000007bffffffffffffffffffffffffffffffffffffffffffffffffffffffff1916827bffffffffffffffffffffffffffffffffffffffffffffffffffffffff19161480610e185750610e1782611773565b5b9050919050565b600081600001549050919050565b600073ffffffffffffffffffffffffffffffffffffffff168473ffffffffffffffffffffffffffffffffffffffff161415610e9d576040517f08c379a0000000000000000000000000000000000000000000000000000000008152600401610e94906129dd565b60405180910390fd5b6000610ea7610ff4565b90506000610eb485611855565b90506000610ec185611855565b9050610ed28360008985858961191b565b8460008088815260200190815260200160002060008973ffffffffffffffffffffffffffffffffffffffff1673ffffffffffffffffffffffffffffffffffffffff1681526020019081526020016000206000828254610f319190612b91565b925050819055508673ffffffffffffffffffffffffffffffffffffffff16600073ffffffffffffffffffffffffffffffffffffffff168473ffffffffffffffffffffffffffffffffffffffff167fc3d58168c5ae7397731d063d5bbf3d657854427343f4c083240f7aacaa2d0f628989604051610faf929190612a18565b60405180910390a4610fc683600089858589611923565b610fd58360008989898961192b565b50505050505050565b6001816000016000828254019250508190555050565b600033905090565b8151835114611040576040517f08c379a0000000000000000000000000000000000000000000000000000000008152600401611037906129bd565b60405180910390fd5b600073ffffffffffffffffffffffffffffffffffffffff168473ffffffffffffffffffffffffffffffffffffffff1614156110b0576040517f08c379a00000000000000000000000000000000000000000000000000000000081526004016110a7906128fd565b60405180910390fd5b60006110ba610ff4565b90506110ca81878787878761191b565b60005b84518110156112c7576000858281518110611111577f4e487b7100000000000000000000000000000000000000000000000000000000600052603260045260246000fd5b602002602001015190506000858381518110611156577f4e487b7100000000000000000000000000000000000000000000000000000000600052603260045260246000fd5b60200260200101519050600080600084815260200190815260200160002060008b73ffffffffffffffffffffffffffffffffffffffff1673ffffffffffffffffffffffffffffffffffffffff168152602001908152602001600020549050818110156111f7576040517f08c379a00000000000000000000000000000000000000000000000000000000081526004016111ee9061295d565b60405180910390fd5b81810360008085815260200190815260200160002060008c73ffffffffffffffffffffffffffffffffffffffff1673ffffffffffffffffffffffffffffffffffffffff168152602001908152602001600020819055508160008085815260200190815260200160002060008b73ffffffffffffffffffffffffffffffffffffffff1673ffffffffffffffffffffffffffffffffffffffff16815260200190815260200160002060008282546112ac9190612b91565b92505081905550505050806112c090612d12565b90506110cd565b508473ffffffffffffffffffffffffffffffffffffffff168673ffffffffffffffffffffffffffffffffffffffff168273ffffffffffffffffffffffffffffffffffffffff167f4a39dc06d4c0dbc64b70af90fd698a233a518aa5d07e595d983b8c0526c8f7fb878760405161133e9291906127be565b60405180910390a4611354818787878787611923565b611362818787878787611b12565b505050505050565b600073ffffffffffffffffffffffffffffffffffffffff168473ffffffffffffffffffffffffffffffffffffffff1614156113da576040517f08c379a00000000000000000000000000000000000000000000000000000000081526004016113d1906128fd565b60405180910390fd5b60006113e4610ff4565b905060006113f185611855565b905060006113fe85611855565b905061140e83898985858961191b565b600080600088815260200190815260200160002060008a73ffffffffffffffffffffffffffffffffffffffff1673ffffffffffffffffffffffffffffffffffffffff168152602001908152602001600020549050858110156114a5576040517f08c379a000000000000000000000000000000000000000000000000000000000815260040161149c9061295d565b60405180910390fd5b85810360008089815260200190815260200160002060008b73ffffffffffffffffffffffffffffffffffffffff1673ffffffffffffffffffffffffffffffffffffffff168152602001908152602001600020819055508560008089815260200190815260200160002060008a73ffffffffffffffffffffffffffffffffffffffff1673ffffffffffffffffffffffffffffffffffffffff168152602001908152602001600020600082825461155a9190612b91565b925050819055508773ffffffffffffffffffffffffffffffffffffffff168973ffffffffffffffffffffffffffffffffffffffff168573ffffffffffffffffffffffffffffffffffffffff167fc3d58168c5ae7397731d063d5bbf3d657854427343f4c083240f7aacaa2d0f628a8a6040516115d7929190612a18565b60405180910390a46115ed848a8a86868a611923565b6115fb848a8a8a8a8a61192b565b505050505050505050565b8173ffffffffffffffffffffffffffffffffffffffff168373ffffffffffffffffffffffffffffffffffffffff161415611675576040517f08c379a000000000000000000000000000000000000000000000000000000000815260040161166c9061297d565b60405180910390fd5b80600160008573ffffffffffffffffffffffffffffffffffffffff1673ffffffffffffffffffffffffffffffffffffffff16815260200190815260200160002060008473ffffffffffffffffffffffffffffffffffffffff1673ffffffffffffffffffffffffffffffffffffffff16815260200190815260200160002060006101000a81548160ff0219169083151502179055508173ffffffffffffffffffffffffffffffffffffffff168373ffffffffffffffffffffffffffffffffffffffff167f17307eab39ab6107e8899845ad3d59bd9653f200f220920489ca2b5937696c318360405161176691906127f5565b60405180910390a3505050565b60007fd9b67a26000000000000000000000000000000000000000000000000000000007bffffffffffffffffffffffffffffffffffffffffffffffffffffffff1916827bffffffffffffffffffffffffffffffffffffffffffffffffffffffff1916148061183e57507f0e89341c000000000000000000000000000000000000000000000000000000007bffffffffffffffffffffffffffffffffffffffffffffffffffffffff1916827bffffffffffffffffffffffffffffffffffffffffffffffffffffffff1916145b8061184e575061184d82611cf9565b5b9050919050565b60606000600167ffffffffffffffff81111561189a577f4e487b7100000000000000000000000000000000000000000000000000000000600052604160045260246000fd5b6040519080825280602002602001820160405280156118c85781602001602082028036833780820191505090505b5090508281600081518110611906577f4e487b7100000000000000000000000000000000000000000000000000000000600052603260045260246000fd5b60200260200101818152505080915050919050565b505050505050565b505050505050565b61194a8473ffffffffffffffffffffffffffffffffffffffff16611d63565b15611b0a578373ffffffffffffffffffffffffffffffffffffffff1663f23a6e6187878686866040518663ffffffff1660e01b8152600401611990959493929190612742565b602060405180830381600087803b1580156119aa57600080fd5b505af19250505080156119db57506040513d601f19601f820116820180604052508101906119d8919061234e565b60015b611a81576119e7612de8565b806308c379a01415611a4457506119fc6131b6565b80611a075750611a46565b806040517f08c379a0000000000000000000000000000000000000000000000000000000008152600401611a3b919061282b565b60405180910390fd5b505b6040517f08c379a0000000000000000000000000000000000000000000000000000000008152600401611a789061287d565b60405180910390fd5b63f23a6e6160e01b7bffffffffffffffffffffffffffffffffffffffffffffffffffffffff1916817bffffffffffffffffffffffffffffffffffffffffffffffffffffffff191614611b08576040517f08c379a0000000000000000000000000000000000000000000000000000000008152600401611aff9061289d565b60405180910390fd5b505b505050505050565b611b318473ffffffffffffffffffffffffffffffffffffffff16611d63565b15611cf1578373ffffffffffffffffffffffffffffffffffffffff1663bc197c8187878686866040518663ffffffff1660e01b8152600401611b779594939291906126da565b602060405180830381600087803b158015611b9157600080fd5b505af1925050508015611bc257506040513d601f19601f82011682018060405250810190611bbf919061234e565b60015b611c6857611bce612de8565b806308c379a01415611c2b5750611be36131b6565b80611bee5750611c2d565b806040517f08c379a0000000000000000000000000000000000000000000000000000000008152600401611c22919061282b565b60405180910390fd5b505b6040517f08c379a0000000000000000000000000000000000000000000000000000000008152600401611c5f9061287d565b60405180910390fd5b63bc197c8160e01b7bffffffffffffffffffffffffffffffffffffffffffffffffffffffff1916817bffffffffffffffffffffffffffffffffffffffffffffffffffffffff191614611cef576040517f08c379a0000000000000000000000000000000000000000000000000000000008152600401611ce69061289d565b60405180910390fd5b505b505050505050565b60007f01ffc9a7000000000000000000000000000000000000000000000000000000007bffffffffffffffffffffffffffffffffffffffffffffffffffffffff1916827bffffffffffffffffffffffffffffffffffffffffffffffffffffffff1916149050919050565b6000808273ffffffffffffffffffffffffffffffffffffffff163b119050919050565b828054611d9290612caf565b90600052602060002090601f016020900481019282611db45760008555611dfb565b82601f10611dcd57805160ff1916838001178555611dfb565b82800160010185558215611dfb579182015b82811115611dfa578251825591602001919060010190611ddf565b5b509050611e089190611e0c565b5090565b5b80821115611e25576000816000905550600101611e0d565b5090565b6000611e3c611e3784612a66565b612a41565b90508083825260208201905082856020860282011115611e5b57600080fd5b60005b85811015611e8b5781611e718882611f7d565b845260208401935060208301925050600181019050611e5e565b5050509392505050565b6000611ea8611ea384612a92565b612a41565b90508083825260208201905082856020860282011115611ec757600080fd5b60005b85811015611ef75781611edd8882612079565b845260208401935060208301925050600181019050611eca565b5050509392505050565b6000611f14611f0f84612abe565b612a41565b905082815260208101848484011115611f2c57600080fd5b611f37848285612c6d565b509392505050565b6000611f52611f4d84612aef565b612a41565b905082815260208101848484011115611f6a57600080fd5b611f75848285612c6d565b509392505050565b600081359050611f8c8161324c565b92915050565b600082601f830112611fa357600080fd5b8135611fb3848260208601611e29565b91505092915050565b600082601f830112611fcd57600080fd5b8135611fdd848260208601611e95565b91505092915050565b600081359050611ff581613263565b92915050565b60008135905061200a8161327a565b92915050565b60008151905061201f8161327a565b92915050565b600082601f83011261203657600080fd5b8135612046848260208601611f01565b91505092915050565b600082601f83011261206057600080fd5b8135612070848260208601611f3f565b91505092915050565b60008135905061208881613291565b92915050565b6000602082840312156120a057600080fd5b60006120ae84828501611f7d565b91505092915050565b600080604083850312156120ca57600080fd5b60006120d885828601611f7d565b92505060206120e985828601611f7d565b9150509250929050565b600080600080600060a0868803121561210b57600080fd5b600061211988828901611f7d565b955050602061212a88828901611f7d565b945050604086013567ffffffffffffffff81111561214757600080fd5b61215388828901611fbc565b935050606086013567ffffffffffffffff81111561217057600080fd5b61217c88828901611fbc565b925050608086013567ffffffffffffffff81111561219957600080fd5b6121a588828901612025565b9150509295509295909350565b600080600080600060a086880312156121ca57600080fd5b60006121d888828901611f7d565b95505060206121e988828901611f7d565b94505060406121fa88828901612079565b935050606061220b88828901612079565b925050608086013567ffffffffffffffff81111561222857600080fd5b61223488828901612025565b9150509295509295909350565b6000806040838503121561225457600080fd5b600061226285828601611f7d565b925050602061227385828601611fe6565b9150509250929050565b6000806040838503121561229057600080fd5b600061229e85828601611f7d565b92505060206122af85828601612079565b9150509250929050565b600080604083850312156122cc57600080fd5b600083013567ffffffffffffffff8111156122e657600080fd5b6122f285828601611f92565b925050602083013567ffffffffffffffff81111561230f57600080fd5b61231b85828601611fbc565b9150509250929050565b60006020828403121561233757600080fd5b600061234584828501611ffb565b91505092915050565b60006020828403121561236057600080fd5b600061236e84828501612010565b91505092915050565b60006020828403121561238957600080fd5b600061239784828501612079565b91505092915050565b600080604083850312156123b357600080fd5b60006123c185828601612079565b925050602083013567ffffffffffffffff8111156123de57600080fd5b6123ea8582860161204f565b9150509250929050565b600061240083836126bc565b60208301905092915050565b61241581612bf9565b82525050565b61242481612be7565b82525050565b600061243582612b30565b61243f8185612b5e565b935061244a83612b20565b8060005b8381101561247b57815161246288826123f4565b975061246d83612b51565b92505060018101905061244e565b5085935050505092915050565b61249181612c0b565b82525050565b6124a081612c17565b82525050565b60006124b182612b3b565b6124bb8185612b6f565b93506124cb818560208601612c7c565b6124d481612e0a565b840191505092915050565b60006124ea82612b46565b6124f48185612b80565b9350612504818560208601612c7c565b61250d81612e0a565b840191505092915050565b6000612525603483612b80565b915061253082612e28565b604082019050919050565b6000612548602883612b80565b915061255382612e77565b604082019050919050565b600061256b602b83612b80565b915061257682612ec6565b604082019050919050565b600061258e602983612b80565b915061259982612f15565b604082019050919050565b60006125b1602583612b80565b91506125bc82612f64565b604082019050919050565b60006125d4603283612b80565b91506125df82612fb3565b604082019050919050565b60006125f7601883612b80565b915061260282613002565b602082019050919050565b600061261a602a83612b80565b91506126258261302b565b604082019050919050565b600061263d602983612b80565b91506126488261307a565b604082019050919050565b6000612660602983612b80565b915061266b826130c9565b604082019050919050565b6000612683602883612b80565b915061268e82613118565b604082019050919050565b60006126a6602183612b80565b91506126b182613167565b604082019050919050565b6126c581612c63565b82525050565b6126d481612c63565b82525050565b600060a0820190506126ef600083018861241b565b6126fc602083018761241b565b818103604083015261270e818661242a565b90508181036060830152612722818561242a565b9050818103608083015261273681846124a6565b90509695505050505050565b600060a082019050612757600083018861241b565b612764602083018761241b565b61277160408301866126cb565b61277e60608301856126cb565b818103608083015261279081846124a6565b90509695505050505050565b600060208201905081810360008301526127b6818461242a565b905092915050565b600060408201905081810360008301526127d8818561242a565b905081810360208301526127ec818461242a565b90509392505050565b600060208201905061280a6000830184612488565b92915050565b60006020820190506128256000830184612497565b92915050565b6000602082019050818103600083015261284581846124df565b905092915050565b6000604082019050818103600083015261286781856124df565b9050612876602083018461240c565b9392505050565b6000602082019050818103600083015261289681612518565b9050919050565b600060208201905081810360008301526128b68161253b565b9050919050565b600060208201905081810360008301526128d68161255e565b9050919050565b600060208201905081810360008301526128f681612581565b9050919050565b60006020820190508181036000830152612916816125a4565b9050919050565b60006020820190508181036000830152612936816125c7565b9050919050565b60006020820190508181036000830152612956816125ea565b9050919050565b600060208201905081810360008301526129768161260d565b9050919050565b6000602082019050818103600083015261299681612630565b9050919050565b600060208201905081810360008301526129b681612653565b9050919050565b600060208201905081810360008301526129d681612676565b9050919050565b600060208201905081810360008301526129f681612699565b9050919050565b6000602082019050612a1260008301846126cb565b92915050565b6000604082019050612a2d60008301856126cb565b612a3a60208301846126cb565b9392505050565b6000612a4b612a5c565b9050612a578282612ce1565b919050565b6000604051905090565b600067ffffffffffffffff821115612a8157612a80612db9565b5b602082029050602081019050919050565b600067ffffffffffffffff821115612aad57612aac612db9565b5b602082029050602081019050919050565b600067ffffffffffffffff821115612ad957612ad8612db9565b5b612ae282612e0a565b9050602081019050919050565b600067ffffffffffffffff821115612b0a57612b09612db9565b5b612b1382612e0a565b9050602081019050919050565b6000819050602082019050919050565b600081519050919050565b600081519050919050565b600081519050919050565b6000602082019050919050565b600082825260208201905092915050565b600082825260208201905092915050565b600082825260208201905092915050565b6000612b9c82612c63565b9150612ba783612c63565b9250827fffffffffffffffffffffffffffffffffffffffffffffffffffffffffffffffff03821115612bdc57612bdb612d5b565b5b828201905092915050565b6000612bf282612c43565b9050919050565b6000612c0482612c43565b9050919050565b60008115159050919050565b60007fffffffff0000000000000000000000000000000000000000000000000000000082169050919050565b600073ffffffffffffffffffffffffffffffffffffffff82169050919050565b6000819050919050565b82818337600083830152505050565b60005b83811015612c9a578082015181840152602081019050612c7f565b83811115612ca9576000848401525b50505050565b60006002820490506001821680612cc757607f821691505b60208210811415612cdb57612cda612d8a565b5b50919050565b612cea82612e0a565b810181811067ffffffffffffffff82111715612d0957612d08612db9565b5b80604052505050565b6000612d1d82612c63565b91507fffffffffffffffffffffffffffffffffffffffffffffffffffffffffffffffff821415612d5057612d4f612d5b565b5b600182019050919050565b7f4e487b7100000000000000000000000000000000000000000000000000000000600052601160045260246000fd5b7f4e487b7100000000000000000000000000000000000000000000000000000000600052602260045260246000fd5b7f4e487b7100000000000000000000000000000000000000000000000000000000600052604160045260246000fd5b600060033d1115612e075760046000803e612e04600051612e1b565b90505b90565b6000601f19601f8301169050919050565b60008160e01c9050919050565b7f455243313135353a207472616e7366657220746f206e6f6e204552433131353560008201527f526563656976657220696d706c656d656e746572000000000000000000000000602082015250565b7f455243313135353a204552433131353552656365697665722072656a6563746560008201527f6420746f6b656e73000000000000000000000000000000000000000000000000602082015250565b7f455243313135353a2062616c616e636520717565727920666f7220746865207a60008201527f65726f2061646472657373000000000000000000000000000000000000000000602082015250565b7f455243313135353a2063616c6c6572206973206e6f74206f776e6572206e6f7260008201527f20617070726f7665640000000000000000000000000000000000000000000000602082015250565b7f455243313135353a207472616e7366657220746f20746865207a65726f20616460008201527f6472657373000000000000000000000000000000000000000000000000000000602082015250565b7f455243313135353a207472616e736665722063616c6c6572206973206e6f742060008201527f6f776e6572206e6f7220617070726f7665640000000000000000000000000000602082015250565b7f43616e6e6f742068617665207a65726f20616464726573730000000000000000600082015250565b7f455243313135353a20696e73756666696369656e742062616c616e636520666f60008201527f72207472616e7366657200000000000000000000000000000000000000000000602082015250565b7f455243313135353a2073657474696e6720617070726f76616c2073746174757360008201527f20666f722073656c660000000000000000000000000000000000000000000000602082015250565b7f455243313135353a206163636f756e747320616e6420696473206c656e67746860008201527f206d69736d617463680000000000000000000000000000000000000000000000602082015250565b7f455243313135353a2069647320616e6420616d6f756e7473206c656e6774682060008201527f6d69736d61746368000000000000000000000000000000000000000000000000602082015250565b7f455243313135353a206d696e7420746f20746865207a65726f2061646472657360008201527f7300000000000000000000000000000000000000000000000000000000000000602082015250565b600060443d10156131c657613249565b6131ce612a5c565b60043d036004823e80513d602482011167ffffffffffffffff821117156131f6575050613249565b808201805167ffffffffffffffff8111156132145750505050613249565b80602083010160043d038501811115613231575050505050613249565b61324082602001850186612ce1565b82955050505050505b90565b61325581612be7565b811461326057600080fd5b50565b61326c81612c0b565b811461327757600080fd5b50565b61328381612c17565b811461328e57600080fd5b50565b61329a81612c63565b81146132a557600080fd5b5056fea26469706673582212208f01200c3428c95a72c4724efb0e2a901e6a868ac8aede3098efbaed61f004fa64736f6c63430008010033",
  "linkReferences": {},
  "deployedLinkReferences": {}
}