{
  "_format": "hh-sol-artifact-1",
  "contractName": "EventMinter",
  "sourceName": "contracts/eventMinter.sol",
  "abi": [
    {
      "inputs": [],
      "stateMutability": "nonpayable",
      "type": "constructor"
    },
    {
      "anonymous": false,
      "inputs": [
        {
          "indexed": true,
          "internalType": "address",
          "name": "account",
          "type": "address"
        },
        {
          "indexed": true,
          "internalType": "address",
          "name": "operator",
          "type": "address"
        },
        {
          "indexed": false,
          "internalType": "bool",
          "name": "approved",
          "type": "bool"
        }
      ],
      "name": "ApprovalForAll",
      "type": "event"
    },
    {
      "anonymous": false,
      "inputs": [
        {
          "indexed": true,
          "internalType": "address",
          "name": "operator",
          "type": "address"
        },
        {
          "indexed": true,
          "internalType": "address",
          "name": "from",
          "type": "address"
        },
        {
          "indexed": true,
          "internalType": "address",
          "name": "to",
          "type": "address"
        },
        {
          "indexed": false,
          "internalType": "uint256[]",
          "name": "ids",
          "type": "uint256[]"
        },
        {
          "indexed": false,
          "internalType": "uint256[]",
          "name": "values",
          "type": "uint256[]"
        }
      ],
      "name": "TransferBatch",
      "type": "event"
    },
    {
      "anonymous": false,
      "inputs": [
        {
          "indexed": true,
          "internalType": "address",
          "name": "operator",
          "type": "address"
        },
        {
          "indexed": true,
          "internalType": "address",
          "name": "from",
          "type": "address"
        },
        {
          "indexed": true,
          "internalType": "address",
          "name": "to",
          "type": "address"
        },
        {
          "indexed": false,
          "internalType": "uint256",
          "name": "id",
          "type": "uint256"
        },
        {
          "indexed": false,
          "internalType": "uint256",
          "name": "value",
          "type": "uint256"
        }
      ],
      "name": "TransferSingle",
      "type": "event"
    },
    {
      "anonymous": false,
      "inputs": [
        {
          "indexed": false,
          "internalType": "string",
          "name": "value",
          "type": "string"
        },
        {
          "indexed": true,
          "internalType": "uint256",
          "name": "id",
          "type": "uint256"
        }
      ],
      "name": "URI",
      "type": "event"
    },
    {
      "anonymous": false,
      "inputs": [
        {
          "indexed": false,
          "internalType": "uint256",
          "name": "eventId",
          "type": "uint256"
        },
        {
          "indexed": false,
          "internalType": "address",
          "name": "owner",
          "type": "address"
        }
      ],
      "name": "eventCreated",
      "type": "event"
    },
    {
      "inputs": [
        {
          "internalType": "address",
          "name": "account",
          "type": "address"
        },
        {
          "internalType": "uint256",
          "name": "id",
          "type": "uint256"
        }
      ],
      "name": "balanceOf",
      "outputs": [
        {
          "internalType": "uint256",
          "name": "",
          "type": "uint256"
        }
      ],
      "stateMutability": "view",
      "type": "function"
    },
    {
      "inputs": [
        {
          "internalType": "address[]",
          "name": "accounts",
          "type": "address[]"
        },
        {
          "internalType": "uint256[]",
          "name": "ids",
          "type": "uint256[]"
        }
      ],
      "name": "balanceOfBatch",
      "outputs": [
        {
          "internalType": "uint256[]",
          "name": "",
          "type": "uint256[]"
        }
      ],
      "stateMutability": "view",
      "type": "function"
    },
    {
      "inputs": [
        {
          "internalType": "uint256",
          "name": "",
          "type": "uint256"
        }
      ],
      "name": "bodies",
      "outputs": [
        {
          "internalType": "address",
          "name": "bodyowner",
          "type": "address"
        },
        {
          "internalType": "string",
          "name": "URI",
          "type": "string"
        }
      ],
      "stateMutability": "view",
      "type": "function"
    },
    {
      "inputs": [],
      "name": "bodyIds",
      "outputs": [
        {
          "internalType": "uint256",
          "name": "_value",
          "type": "uint256"
        }
      ],
      "stateMutability": "view",
      "type": "function"
    },
    {
      "inputs": [
        {
          "internalType": "uint256",
          "name": "_eventId",
          "type": "uint256"
        }
      ],
      "name": "claim",
      "outputs": [
        {
          "internalType": "bool",
          "name": "",
          "type": "bool"
        }
      ],
      "stateMutability": "payable",
      "type": "function"
    },
    {
      "inputs": [],
      "name": "eventIds",
      "outputs": [
        {
          "internalType": "uint256",
          "name": "_value",
          "type": "uint256"
        }
      ],
      "stateMutability": "view",
      "type": "function"
    },
    {
      "inputs": [
        {
          "internalType": "uint256",
          "name": "",
          "type": "uint256"
        }
      ],
      "name": "events",
      "outputs": [
        {
          "internalType": "uint256",
          "name": "quantity",
          "type": "uint256"
        },
        {
          "internalType": "address",
          "name": "organizer",
          "type": "address"
        },
        {
          "internalType": "string",
          "name": "URI",
          "type": "string"
        }
      ],
      "stateMutability": "view",
      "type": "function"
    },
    {
      "inputs": [
        {
          "internalType": "address",
          "name": "user",
          "type": "address"
        }
      ],
      "name": "getIds",
      "outputs": [
        {
          "internalType": "uint256[]",
          "name": "",
          "type": "uint256[]"
        }
      ],
      "stateMutability": "view",
      "type": "function"
    },
    {
      "inputs": [
        {
          "internalType": "address",
          "name": "account",
          "type": "address"
        },
        {
          "internalType": "address",
          "name": "operator",
          "type": "address"
        }
      ],
      "name": "isApprovedForAll",
      "outputs": [
        {
          "internalType": "bool",
          "name": "",
          "type": "bool"
        }
      ],
      "stateMutability": "view",
      "type": "function"
    },
    {
      "inputs": [
        {
          "internalType": "string",
          "name": "_URI",
          "type": "string"
        }
      ],
      "name": "mintBody",
      "outputs": [
        {
          "internalType": "uint256",
          "name": "",
          "type": "uint256"
        }
      ],
      "stateMutability": "nonpayable",
      "type": "function"
    },
    {
      "inputs": [
        {
          "internalType": "uint256",
          "name": "_quantity",
          "type": "uint256"
        },
        {
          "internalType": "string",
          "name": "_URI",
          "type": "string"
        }
      ],
      "name": "mintEventNFT",
      "outputs": [
        {
          "internalType": "uint256",
          "name": "",
          "type": "uint256"
        }
      ],
      "stateMutability": "nonpayable",
      "type": "function"
    },
    {
      "inputs": [
        {
          "internalType": "address",
          "name": "",
          "type": "address"
        },
        {
          "internalType": "address",
          "name": "",
          "type": "address"
        },
        {
          "internalType": "uint256[]",
          "name": "",
          "type": "uint256[]"
        },
        {
          "internalType": "uint256[]",
          "name": "",
          "type": "uint256[]"
        },
        {
          "internalType": "bytes",
          "name": "",
          "type": "bytes"
        }
      ],
      "name": "onERC1155BatchReceived",
      "outputs": [
        {
          "internalType": "bytes4",
          "name": "",
          "type": "bytes4"
        }
      ],
      "stateMutability": "nonpayable",
      "type": "function"
    },
    {
      "inputs": [
        {
          "internalType": "address",
          "name": "",
          "type": "address"
        },
        {
          "internalType": "address",
          "name": "",
          "type": "address"
        },
        {
          "internalType": "uint256",
          "name": "",
          "type": "uint256"
        },
        {
          "internalType": "uint256",
          "name": "",
          "type": "uint256"
        },
        {
          "internalType": "bytes",
          "name": "",
          "type": "bytes"
        }
      ],
      "name": "onERC1155Received",
      "outputs": [
        {
          "internalType": "bytes4",
          "name": "",
          "type": "bytes4"
        }
      ],
      "stateMutability": "nonpayable",
      "type": "function"
    },
    {
      "inputs": [
        {
          "internalType": "address",
          "name": "from",
          "type": "address"
        },
        {
          "internalType": "address",
          "name": "to",
          "type": "address"
        },
        {
          "internalType": "uint256[]",
          "name": "ids",
          "type": "uint256[]"
        },
        {
          "internalType": "uint256[]",
          "name": "amounts",
          "type": "uint256[]"
        },
        {
          "internalType": "bytes",
          "name": "data",
          "type": "bytes"
        }
      ],
      "name": "safeBatchTransferFrom",
      "outputs": [],
      "stateMutability": "nonpayable",
      "type": "function"
    },
    {
      "inputs": [
        {
          "internalType": "address",
          "name": "from",
          "type": "address"
        },
        {
          "internalType": "address",
          "name": "to",
          "type": "address"
        },
        {
          "internalType": "uint256",
          "name": "id",
          "type": "uint256"
        },
        {
          "internalType": "uint256",
          "name": "amount",
          "type": "uint256"
        },
        {
          "internalType": "bytes",
          "name": "data",
          "type": "bytes"
        }
      ],
      "name": "safeTransferFrom",
      "outputs": [],
      "stateMutability": "nonpayable",
      "type": "function"
    },
    {
      "inputs": [
        {
          "internalType": "address",
          "name": "operator",
          "type": "address"
        },
        {
          "internalType": "bool",
          "name": "approved",
          "type": "bool"
        }
      ],
      "name": "setApprovalForAll",
      "outputs": [],
      "stateMutability": "nonpayable",
      "type": "function"
    },
    {
      "inputs": [
        {
          "internalType": "bytes4",
          "name": "interfaceId",
          "type": "bytes4"
        }
      ],
      "name": "supportsInterface",
      "outputs": [
        {
          "internalType": "bool",
          "name": "",
          "type": "bool"
        }
      ],
      "stateMutability": "view",
      "type": "function"
    },
    {
      "inputs": [
        {
          "internalType": "uint256",
          "name": "_eventId",
          "type": "uint256"
        }
      ],
      "name": "tokenURI",
      "outputs": [
        {
          "internalType": "string",
          "name": "",
          "type": "string"
        }
      ],
      "stateMutability": "view",
      "type": "function"
    },
    {
      "inputs": [
        {
          "internalType": "uint256",
          "name": "",
          "type": "uint256"
        }
      ],
      "name": "uri",
      "outputs": [
        {
          "internalType": "string",
          "name": "",
          "type": "string"
        }
      ],
      "stateMutability": "view",
      "type": "function"
    }
  ],
  "bytecode": "0x60806040523480156200001157600080fd5b506040518060200160405280600081525062000033816200007b60201b60201c565b5033600360006101000a81548173ffffffffffffffffffffffffffffffffffffffff021916908373ffffffffffffffffffffffffffffffffffffffff160217905550620001ac565b80600290805190602001906200009392919062000097565b5050565b828054620000a59062000147565b90600052602060002090601f016020900481019282620000c9576000855562000115565b82601f10620000e457805160ff191683800117855562000115565b8280016001018555821562000115579182015b8281111562000114578251825591602001919060010190620000f7565b5b50905062000124919062000128565b5090565b5b808211156200014357600081600090555060010162000129565b5090565b600060028204905060018216806200016057607f821691505b602082108114156200017757620001766200017d565b5b50919050565b7f4e487b7100000000000000000000000000000000000000000000000000000000600052602260045260246000fd5b61383f80620001bc6000396000f3fe6080604052600436106101135760003560e01c806344cee73c116100a0578063bc197c8111610064578063bc197c8114610418578063c87b56dd14610455578063e985e9c514610492578063f23a6e61146104cf578063f242432a1461050c57610113565b806344cee73c1461030c5780634e1273f41461034a5780636b1bedae1461038757806378883077146103c4578063a22cb465146103ef57610113565b80630e89341c116100e75780630e89341c146101fc5780632671b0d8146102395780632eb2c2d614610276578063364be2f21461029f578063379607f5146102dc57610113565b8062fdd58e1461011857806301ffc9a71461015557806308eae5a6146101925780630b791430146101bd575b600080fd5b34801561012457600080fd5b5061013f600480360381019061013a91906126eb565b610535565b60405161014c9190612ee0565b60405180910390f35b34801561016157600080fd5b5061017c60048036038101906101779190612793565b6105fe565b6040516101899190612ce8565b60405180910390f35b34801561019e57600080fd5b506101a7610610565b6040516101b49190612ee0565b60405180910390f35b3480156101c957600080fd5b506101e460048036038101906101df9190612826565b61061c565b6040516101f393929190612f24565b60405180910390f35b34801561020857600080fd5b50610223600480360381019061021e9190612826565b6106ee565b6040516102309190612d1e565b60405180910390f35b34801561024557600080fd5b50610260600480360381019061025b91906124fc565b610782565b60405161026d9190612c8f565b60405180910390f35b34801561028257600080fd5b5061029d60048036038101906102989190612561565b610819565b005b3480156102ab57600080fd5b506102c660048036038101906102c1919061284f565b6108ba565b6040516102d39190612ee0565b60405180910390f35b6102f660048036038101906102f19190612826565b6109f1565b6040516103039190612ce8565b60405180910390f35b34801561031857600080fd5b50610333600480360381019061032e9190612826565b610bc4565b604051610341929190612c5f565b60405180910390f35b34801561035657600080fd5b50610371600480360381019061036c9190612727565b610c90565b60405161037e9190612c8f565b60405180910390f35b34801561039357600080fd5b506103ae60048036038101906103a991906127e5565b610e41565b6040516103bb9190612ee0565b60405180910390f35b3480156103d057600080fd5b506103d9610f68565b6040516103e69190612ee0565b60405180910390f35b3480156103fb57600080fd5b50610416600480360381019061041191906126af565b610f74565b005b34801561042457600080fd5b5061043f600480360381019061043a9190612561565b610f8a565b60405161044c9190612d03565b60405180910390f35b34801561046157600080fd5b5061047c60048036038101906104779190612826565b610f9f565b6040516104899190612d1e565b60405180910390f35b34801561049e57600080fd5b506104b960048036038101906104b49190612525565b611047565b6040516104c69190612ce8565b60405180910390f35b3480156104db57600080fd5b506104f660048036038101906104f19190612620565b6110db565b6040516105039190612d03565b60405180910390f35b34801561051857600080fd5b50610533600480360381019061052e9190612620565b6110f0565b005b60008073ffffffffffffffffffffffffffffffffffffffff168373ffffffffffffffffffffffffffffffffffffffff1614156105a6576040517f08c379a000000000000000000000000000000000000000000000000000000000815260040161059d90612d80565b60405180910390fd5b60008083815260200190815260200160002060008473ffffffffffffffffffffffffffffffffffffffff1673ffffffffffffffffffffffffffffffffffffffff16815260200190815260200160002054905092915050565b600061060982611191565b9050919050565b60058060000154905081565b60066020528060005260406000206000915090508060000154908060010160009054906101000a900473ffffffffffffffffffffffffffffffffffffffff169080600201805461066b906131e7565b80601f0160208091040260200160405190810160405280929190818152602001828054610697906131e7565b80156106e45780601f106106b9576101008083540402835291602001916106e4565b820191906000526020600020905b8154815290600101906020018083116106c757829003601f168201915b5050505050905083565b6060600280546106fd906131e7565b80601f0160208091040260200160405190810160405280929190818152602001828054610729906131e7565b80156107765780601f1061074b57610100808354040283529160200191610776565b820191906000526020600020905b81548152906001019060200180831161075957829003601f168201915b50505050509050919050565b6060600860008373ffffffffffffffffffffffffffffffffffffffff1673ffffffffffffffffffffffffffffffffffffffff16815260200190815260200160002080548060200260200160405190810160405280929190818152602001828054801561080d57602002820191906000526020600020905b8154815260200190600101908083116107f9575b50505050509050919050565b61082161120b565b73ffffffffffffffffffffffffffffffffffffffff168573ffffffffffffffffffffffffffffffffffffffff16148061086757506108668561086161120b565b611047565b5b6108a6576040517f08c379a000000000000000000000000000000000000000000000000000000000815260040161089d90612de0565b60405180910390fd5b6108b38585858585611213565b5050505050565b6000806108c76004611581565b905060405180606001604052808581526020013373ffffffffffffffffffffffffffffffffffffffff16815260200184815250600660008381526020019081526020016000206000820151816000015560208201518160010160006101000a81548173ffffffffffffffffffffffffffffffffffffffff021916908373ffffffffffffffffffffffffffffffffffffffff160217905550604082015181600201908051906020019061097a9291906121f4565b509050506109993082866040518060200160405280600081525061158f565b6109a4306001610f74565b6109ae6004611740565b7fe84a9bbfcbf8f5616a5ab8a7bbcccf7ebbefb9d3ff6cdc87f2cfab2d24afabb381336040516109df929190612efb565b60405180910390a18091505092915050565b60008073ffffffffffffffffffffffffffffffffffffffff163373ffffffffffffffffffffffffffffffffffffffff161415610a62576040517f08c379a0000000000000000000000000000000000000000000000000000000008152600401610a5990612e00565b60405180910390fd5b610af9600860003373ffffffffffffffffffffffffffffffffffffffff1673ffffffffffffffffffffffffffffffffffffffff168152602001908152602001600020805480602002602001604051908101604052809291908181526020018280548015610aee57602002820191906000526020600020905b815481526020019060010190808311610ada575b505050505083611756565b610b38576040517f08c379a0000000000000000000000000000000000000000000000000000000008152600401610b2f90612e40565b60405180910390fd5b610b553033846001604051806020016040528060008152506117d8565b600860003373ffffffffffffffffffffffffffffffffffffffff1673ffffffffffffffffffffffffffffffffffffffff16815260200190815260200160002082908060018154018082558091505060019003906000526020600020016000909190919091505560019050919050565b60076020528060005260406000206000915090508060000160009054906101000a900473ffffffffffffffffffffffffffffffffffffffff1690806001018054610c0d906131e7565b80601f0160208091040260200160405190810160405280929190818152602001828054610c39906131e7565b8015610c865780601f10610c5b57610100808354040283529160200191610c86565b820191906000526020600020905b815481529060010190602001808311610c6957829003601f168201915b5050505050905082565b60608151835114610cd6576040517f08c379a0000000000000000000000000000000000000000000000000000000008152600401610ccd90612e80565b60405180910390fd5b6000835167ffffffffffffffff811115610d19577f4e487b7100000000000000000000000000000000000000000000000000000000600052604160045260246000fd5b604051908082528060200260200182016040528015610d475781602001602082028036833780820191505090505b50905060005b8451811015610e3657610de0858281518110610d92577f4e487b7100000000000000000000000000000000000000000000000000000000600052603260045260246000fd5b6020026020010151858381518110610dd3577f4e487b7100000000000000000000000000000000000000000000000000000000600052603260045260246000fd5b6020026020010151610535565b828281518110610e19577f4e487b7100000000000000000000000000000000000000000000000000000000600052603260045260246000fd5b60200260200101818152505080610e2f9061324a565b9050610d4d565b508091505092915050565b600080610e4e6005611581565b905060405180604001604052803373ffffffffffffffffffffffffffffffffffffffff168152602001848152506007600083815260200190815260200160002060008201518160000160006101000a81548173ffffffffffffffffffffffffffffffffffffffff021916908373ffffffffffffffffffffffffffffffffffffffff1602179055506020820151816001019080519060200190610ef19291906121f4565b50905050610f11338260016040518060200160405280600081525061158f565b610f1b6005611740565b80600960003373ffffffffffffffffffffffffffffffffffffffff1673ffffffffffffffffffffffffffffffffffffffff1681526020019081526020016000208190555080915050919050565b60048060000154905081565b610f86610f7f61120b565b8383611a74565b5050565b600063bc197c8160e01b905095945050505050565b6060600660008381526020019081526020016000206002018054610fc2906131e7565b80601f0160208091040260200160405190810160405280929190818152602001828054610fee906131e7565b801561103b5780601f106110105761010080835404028352916020019161103b565b820191906000526020600020905b81548152906001019060200180831161101e57829003601f168201915b50505050509050919050565b6000600160008473ffffffffffffffffffffffffffffffffffffffff1673ffffffffffffffffffffffffffffffffffffffff16815260200190815260200160002060008373ffffffffffffffffffffffffffffffffffffffff1673ffffffffffffffffffffffffffffffffffffffff16815260200190815260200160002060009054906101000a900460ff16905092915050565b600063f23a6e6160e01b905095945050505050565b6110f861120b565b73ffffffffffffffffffffffffffffffffffffffff168573ffffffffffffffffffffffffffffffffffffffff16148061113e575061113d8561113861120b565b611047565b5b61117d576040517f08c379a000000000000000000000000000000000000000000000000000000000815260040161117490612da0565b60405180910390fd5b61118a85858585856117d8565b5050505050565b60007f4e2312e0000000000000000000000000000000000000000000000000000000007bffffffffffffffffffffffffffffffffffffffffffffffffffffffff1916827bffffffffffffffffffffffffffffffffffffffffffffffffffffffff19161480611204575061120382611be1565b5b9050919050565b600033905090565b8151835114611257576040517f08c379a000000000000000000000000000000000000000000000000000000000815260040161124e90612ea0565b60405180910390fd5b600073ffffffffffffffffffffffffffffffffffffffff168473ffffffffffffffffffffffffffffffffffffffff1614156112c7576040517f08c379a00000000000000000000000000000000000000000000000000000000081526004016112be90612dc0565b60405180910390fd5b60006112d161120b565b90506112e1818787878787611cc3565b60005b84518110156114de576000858281518110611328577f4e487b7100000000000000000000000000000000000000000000000000000000600052603260045260246000fd5b60200260200101519050600085838151811061136d577f4e487b7100000000000000000000000000000000000000000000000000000000600052603260045260246000fd5b60200260200101519050600080600084815260200190815260200160002060008b73ffffffffffffffffffffffffffffffffffffffff1673ffffffffffffffffffffffffffffffffffffffff1681526020019081526020016000205490508181101561140e576040517f08c379a000000000000000000000000000000000000000000000000000000000815260040161140590612e20565b60405180910390fd5b81810360008085815260200190815260200160002060008c73ffffffffffffffffffffffffffffffffffffffff1673ffffffffffffffffffffffffffffffffffffffff168152602001908152602001600020819055508160008085815260200190815260200160002060008b73ffffffffffffffffffffffffffffffffffffffff1673ffffffffffffffffffffffffffffffffffffffff16815260200190815260200160002060008282546114c391906130db565b92505081905550505050806114d79061324a565b90506112e4565b508473ffffffffffffffffffffffffffffffffffffffff168673ffffffffffffffffffffffffffffffffffffffff168273ffffffffffffffffffffffffffffffffffffffff167f4a39dc06d4c0dbc64b70af90fd698a233a518aa5d07e595d983b8c0526c8f7fb8787604051611555929190612cb1565b60405180910390a461156b818787878787611ccb565b611579818787878787611cd3565b505050505050565b600081600001549050919050565b600073ffffffffffffffffffffffffffffffffffffffff168473ffffffffffffffffffffffffffffffffffffffff1614156115ff576040517f08c379a00000000000000000000000000000000000000000000000000000000081526004016115f690612ec0565b60405180910390fd5b600061160961120b565b9050600061161685611eba565b9050600061162385611eba565b905061163483600089858589611cc3565b8460008088815260200190815260200160002060008973ffffffffffffffffffffffffffffffffffffffff1673ffffffffffffffffffffffffffffffffffffffff168152602001908152602001600020600082825461169391906130db565b925050819055508673ffffffffffffffffffffffffffffffffffffffff16600073ffffffffffffffffffffffffffffffffffffffff168473ffffffffffffffffffffffffffffffffffffffff167fc3d58168c5ae7397731d063d5bbf3d657854427343f4c083240f7aacaa2d0f628989604051611711929190612f62565b60405180910390a461172883600089858589611ccb565b61173783600089898989611f80565b50505050505050565b6001816000016000828254019250508190555050565b600080600090505b83518110156117cc578381815181106117a0577f4e487b7100000000000000000000000000000000000000000000000000000000600052603260045260246000fd5b60200260200101518314156117b95760009150506117d2565b80806117c49061324a565b91505061175e565b50600190505b92915050565b600073ffffffffffffffffffffffffffffffffffffffff168473ffffffffffffffffffffffffffffffffffffffff161415611848576040517f08c379a000000000000000000000000000000000000000000000000000000000815260040161183f90612dc0565b60405180910390fd5b600061185261120b565b9050600061185f85611eba565b9050600061186c85611eba565b905061187c838989858589611cc3565b600080600088815260200190815260200160002060008a73ffffffffffffffffffffffffffffffffffffffff1673ffffffffffffffffffffffffffffffffffffffff16815260200190815260200160002054905085811015611913576040517f08c379a000000000000000000000000000000000000000000000000000000000815260040161190a90612e20565b60405180910390fd5b85810360008089815260200190815260200160002060008b73ffffffffffffffffffffffffffffffffffffffff1673ffffffffffffffffffffffffffffffffffffffff168152602001908152602001600020819055508560008089815260200190815260200160002060008a73ffffffffffffffffffffffffffffffffffffffff1673ffffffffffffffffffffffffffffffffffffffff16815260200190815260200160002060008282546119c891906130db565b925050819055508773ffffffffffffffffffffffffffffffffffffffff168973ffffffffffffffffffffffffffffffffffffffff168573ffffffffffffffffffffffffffffffffffffffff167fc3d58168c5ae7397731d063d5bbf3d657854427343f4c083240f7aacaa2d0f628a8a604051611a45929190612f62565b60405180910390a4611a5b848a8a86868a611ccb565b611a69848a8a8a8a8a611f80565b505050505050505050565b8173ffffffffffffffffffffffffffffffffffffffff168373ffffffffffffffffffffffffffffffffffffffff161415611ae3576040517f08c379a0000000000000000000000000000000000000000000000000000000008152600401611ada90612e60565b60405180910390fd5b80600160008573ffffffffffffffffffffffffffffffffffffffff1673ffffffffffffffffffffffffffffffffffffffff16815260200190815260200160002060008473ffffffffffffffffffffffffffffffffffffffff1673ffffffffffffffffffffffffffffffffffffffff16815260200190815260200160002060006101000a81548160ff0219169083151502179055508173ffffffffffffffffffffffffffffffffffffffff168373ffffffffffffffffffffffffffffffffffffffff167f17307eab39ab6107e8899845ad3d59bd9653f200f220920489ca2b5937696c3183604051611bd49190612ce8565b60405180910390a3505050565b60007fd9b67a26000000000000000000000000000000000000000000000000000000007bffffffffffffffffffffffffffffffffffffffffffffffffffffffff1916827bffffffffffffffffffffffffffffffffffffffffffffffffffffffff19161480611cac57507f0e89341c000000000000000000000000000000000000000000000000000000007bffffffffffffffffffffffffffffffffffffffffffffffffffffffff1916827bffffffffffffffffffffffffffffffffffffffffffffffffffffffff1916145b80611cbc5750611cbb82612167565b5b9050919050565b505050505050565b505050505050565b611cf28473ffffffffffffffffffffffffffffffffffffffff166121d1565b15611eb2578373ffffffffffffffffffffffffffffffffffffffff1663bc197c8187878686866040518663ffffffff1660e01b8152600401611d38959493929190612b9d565b602060405180830381600087803b158015611d5257600080fd5b505af1925050508015611d8357506040513d601f19601f82011682018060405250810190611d8091906127bc565b60015b611e2957611d8f613320565b806308c379a01415611dec5750611da4613717565b80611daf5750611dee565b806040517f08c379a0000000000000000000000000000000000000000000000000000000008152600401611de39190612d1e565b60405180910390fd5b505b6040517f08c379a0000000000000000000000000000000000000000000000000000000008152600401611e2090612d40565b60405180910390fd5b63bc197c8160e01b7bffffffffffffffffffffffffffffffffffffffffffffffffffffffff1916817bffffffffffffffffffffffffffffffffffffffffffffffffffffffff191614611eb0576040517f08c379a0000000000000000000000000000000000000000000000000000000008152600401611ea790612d60565b60405180910390fd5b505b505050505050565b60606000600167ffffffffffffffff811115611eff577f4e487b7100000000000000000000000000000000000000000000000000000000600052604160045260246000fd5b604051908082528060200260200182016040528015611f2d5781602001602082028036833780820191505090505b5090508281600081518110611f6b577f4e487b7100000000000000000000000000000000000000000000000000000000600052603260045260246000fd5b60200260200101818152505080915050919050565b611f9f8473ffffffffffffffffffffffffffffffffffffffff166121d1565b1561215f578373ffffffffffffffffffffffffffffffffffffffff1663f23a6e6187878686866040518663ffffffff1660e01b8152600401611fe5959493929190612c05565b602060405180830381600087803b158015611fff57600080fd5b505af192505050801561203057506040513d601f19601f8201168201806040525081019061202d91906127bc565b60015b6120d65761203c613320565b806308c379a014156120995750612051613717565b8061205c575061209b565b806040517f08c379a00000000000000000000000000000000000000000000000000000000081526004016120909190612d1e565b60405180910390fd5b505b6040517f08c379a00000000000000000000000000000000000000000000000000000000081526004016120cd90612d40565b60405180910390fd5b63f23a6e6160e01b7bffffffffffffffffffffffffffffffffffffffffffffffffffffffff1916817bffffffffffffffffffffffffffffffffffffffffffffffffffffffff19161461215d576040517f08c379a000000000000000000000000000000000000000000000000000000000815260040161215490612d60565b60405180910390fd5b505b505050505050565b60007f01ffc9a7000000000000000000000000000000000000000000000000000000007bffffffffffffffffffffffffffffffffffffffffffffffffffffffff1916827bffffffffffffffffffffffffffffffffffffffffffffffffffffffff1916149050919050565b6000808273ffffffffffffffffffffffffffffffffffffffff163b119050919050565b828054612200906131e7565b90600052602060002090601f0160209004810192826122225760008555612269565b82601f1061223b57805160ff1916838001178555612269565b82800160010185558215612269579182015b8281111561226857825182559160200191906001019061224d565b5b509050612276919061227a565b5090565b5b8082111561229357600081600090555060010161227b565b5090565b60006122aa6122a584612fb0565b612f8b565b905080838252602082019050828560208602820111156122c957600080fd5b60005b858110156122f957816122df88826123eb565b8452602084019350602083019250506001810190506122cc565b5050509392505050565b600061231661231184612fdc565b612f8b565b9050808382526020820190508285602086028201111561233557600080fd5b60005b85811015612365578161234b88826124e7565b845260208401935060208301925050600181019050612338565b5050509392505050565b600061238261237d84613008565b612f8b565b90508281526020810184848401111561239a57600080fd5b6123a58482856131a5565b509392505050565b60006123c06123bb84613039565b612f8b565b9050828152602081018484840111156123d857600080fd5b6123e38482856131a5565b509392505050565b6000813590506123fa816137ad565b92915050565b600082601f83011261241157600080fd5b8135612421848260208601612297565b91505092915050565b600082601f83011261243b57600080fd5b813561244b848260208601612303565b91505092915050565b600081359050612463816137c4565b92915050565b600081359050612478816137db565b92915050565b60008151905061248d816137db565b92915050565b600082601f8301126124a457600080fd5b81356124b484826020860161236f565b91505092915050565b600082601f8301126124ce57600080fd5b81356124de8482602086016123ad565b91505092915050565b6000813590506124f6816137f2565b92915050565b60006020828403121561250e57600080fd5b600061251c848285016123eb565b91505092915050565b6000806040838503121561253857600080fd5b6000612546858286016123eb565b9250506020612557858286016123eb565b9150509250929050565b600080600080600060a0868803121561257957600080fd5b6000612587888289016123eb565b9550506020612598888289016123eb565b945050604086013567ffffffffffffffff8111156125b557600080fd5b6125c18882890161242a565b935050606086013567ffffffffffffffff8111156125de57600080fd5b6125ea8882890161242a565b925050608086013567ffffffffffffffff81111561260757600080fd5b61261388828901612493565b9150509295509295909350565b600080600080600060a0868803121561263857600080fd5b6000612646888289016123eb565b9550506020612657888289016123eb565b9450506040612668888289016124e7565b9350506060612679888289016124e7565b925050608086013567ffffffffffffffff81111561269657600080fd5b6126a288828901612493565b9150509295509295909350565b600080604083850312156126c257600080fd5b60006126d0858286016123eb565b92505060206126e185828601612454565b9150509250929050565b600080604083850312156126fe57600080fd5b600061270c858286016123eb565b925050602061271d858286016124e7565b9150509250929050565b6000806040838503121561273a57600080fd5b600083013567ffffffffffffffff81111561275457600080fd5b61276085828601612400565b925050602083013567ffffffffffffffff81111561277d57600080fd5b6127898582860161242a565b9150509250929050565b6000602082840312156127a557600080fd5b60006127b384828501612469565b91505092915050565b6000602082840312156127ce57600080fd5b60006127dc8482850161247e565b91505092915050565b6000602082840312156127f757600080fd5b600082013567ffffffffffffffff81111561281157600080fd5b61281d848285016124bd565b91505092915050565b60006020828403121561283857600080fd5b6000612846848285016124e7565b91505092915050565b6000806040838503121561286257600080fd5b6000612870858286016124e7565b925050602083013567ffffffffffffffff81111561288d57600080fd5b612899858286016124bd565b9150509250929050565b60006128af8383612b7f565b60208301905092915050565b6128c481613131565b82525050565b60006128d58261307a565b6128df81856130a8565b93506128ea8361306a565b8060005b8381101561291b57815161290288826128a3565b975061290d8361309b565b9250506001810190506128ee565b5085935050505092915050565b61293181613143565b82525050565b6129408161314f565b82525050565b600061295182613085565b61295b81856130b9565b935061296b8185602086016131b4565b61297481613342565b840191505092915050565b600061298a82613090565b61299481856130ca565b93506129a48185602086016131b4565b6129ad81613342565b840191505092915050565b60006129c56034836130ca565b91506129d082613360565b604082019050919050565b60006129e86028836130ca565b91506129f3826133af565b604082019050919050565b6000612a0b602b836130ca565b9150612a16826133fe565b604082019050919050565b6000612a2e6029836130ca565b9150612a398261344d565b604082019050919050565b6000612a516025836130ca565b9150612a5c8261349c565b604082019050919050565b6000612a746032836130ca565b9150612a7f826134eb565b604082019050919050565b6000612a976018836130ca565b9150612aa28261353a565b602082019050919050565b6000612aba602a836130ca565b9150612ac582613563565b604082019050919050565b6000612add601a836130ca565b9150612ae8826135b2565b602082019050919050565b6000612b006029836130ca565b9150612b0b826135db565b604082019050919050565b6000612b236029836130ca565b9150612b2e8261362a565b604082019050919050565b6000612b466028836130ca565b9150612b5182613679565b604082019050919050565b6000612b696021836130ca565b9150612b74826136c8565b604082019050919050565b612b888161319b565b82525050565b612b978161319b565b82525050565b600060a082019050612bb260008301886128bb565b612bbf60208301876128bb565b8181036040830152612bd181866128ca565b90508181036060830152612be581856128ca565b90508181036080830152612bf98184612946565b90509695505050505050565b600060a082019050612c1a60008301886128bb565b612c2760208301876128bb565b612c346040830186612b8e565b612c416060830185612b8e565b8181036080830152612c538184612946565b90509695505050505050565b6000604082019050612c7460008301856128bb565b8181036020830152612c86818461297f565b90509392505050565b60006020820190508181036000830152612ca981846128ca565b905092915050565b60006040820190508181036000830152612ccb81856128ca565b90508181036020830152612cdf81846128ca565b90509392505050565b6000602082019050612cfd6000830184612928565b92915050565b6000602082019050612d186000830184612937565b92915050565b60006020820190508181036000830152612d38818461297f565b905092915050565b60006020820190508181036000830152612d59816129b8565b9050919050565b60006020820190508181036000830152612d79816129db565b9050919050565b60006020820190508181036000830152612d99816129fe565b9050919050565b60006020820190508181036000830152612db981612a21565b9050919050565b60006020820190508181036000830152612dd981612a44565b9050919050565b60006020820190508181036000830152612df981612a67565b9050919050565b60006020820190508181036000830152612e1981612a8a565b9050919050565b60006020820190508181036000830152612e3981612aad565b9050919050565b60006020820190508181036000830152612e5981612ad0565b9050919050565b60006020820190508181036000830152612e7981612af3565b9050919050565b60006020820190508181036000830152612e9981612b16565b9050919050565b60006020820190508181036000830152612eb981612b39565b9050919050565b60006020820190508181036000830152612ed981612b5c565b9050919050565b6000602082019050612ef56000830184612b8e565b92915050565b6000604082019050612f106000830185612b8e565b612f1d60208301846128bb565b9392505050565b6000606082019050612f396000830186612b8e565b612f4660208301856128bb565b8181036040830152612f58818461297f565b9050949350505050565b6000604082019050612f776000830185612b8e565b612f846020830184612b8e565b9392505050565b6000612f95612fa6565b9050612fa18282613219565b919050565b6000604051905090565b600067ffffffffffffffff821115612fcb57612fca6132f1565b5b602082029050602081019050919050565b600067ffffffffffffffff821115612ff757612ff66132f1565b5b602082029050602081019050919050565b600067ffffffffffffffff821115613023576130226132f1565b5b61302c82613342565b9050602081019050919050565b600067ffffffffffffffff821115613054576130536132f1565b5b61305d82613342565b9050602081019050919050565b6000819050602082019050919050565b600081519050919050565b600081519050919050565b600081519050919050565b6000602082019050919050565b600082825260208201905092915050565b600082825260208201905092915050565b600082825260208201905092915050565b60006130e68261319b565b91506130f18361319b565b9250827fffffffffffffffffffffffffffffffffffffffffffffffffffffffffffffffff0382111561312657613125613293565b5b828201905092915050565b600061313c8261317b565b9050919050565b60008115159050919050565b60007fffffffff0000000000000000000000000000000000000000000000000000000082169050919050565b600073ffffffffffffffffffffffffffffffffffffffff82169050919050565b6000819050919050565b82818337600083830152505050565b60005b838110156131d25780820151818401526020810190506131b7565b838111156131e1576000848401525b50505050565b600060028204905060018216806131ff57607f821691505b60208210811415613213576132126132c2565b5b50919050565b61322282613342565b810181811067ffffffffffffffff82111715613241576132406132f1565b5b80604052505050565b60006132558261319b565b91507fffffffffffffffffffffffffffffffffffffffffffffffffffffffffffffffff82141561328857613287613293565b5b600182019050919050565b7f4e487b7100000000000000000000000000000000000000000000000000000000600052601160045260246000fd5b7f4e487b7100000000000000000000000000000000000000000000000000000000600052602260045260246000fd5b7f4e487b7100000000000000000000000000000000000000000000000000000000600052604160045260246000fd5b600060033d111561333f5760046000803e61333c600051613353565b90505b90565b6000601f19601f8301169050919050565b60008160e01c9050919050565b7f455243313135353a207472616e7366657220746f206e6f6e204552433131353560008201527f526563656976657220696d706c656d656e746572000000000000000000000000602082015250565b7f455243313135353a204552433131353552656365697665722072656a6563746560008201527f6420746f6b656e73000000000000000000000000000000000000000000000000602082015250565b7f455243313135353a2062616c616e636520717565727920666f7220746865207a60008201527f65726f2061646472657373000000000000000000000000000000000000000000602082015250565b7f455243313135353a2063616c6c6572206973206e6f74206f776e6572206e6f7260008201527f20617070726f7665640000000000000000000000000000000000000000000000602082015250565b7f455243313135353a207472616e7366657220746f20746865207a65726f20616460008201527f6472657373000000000000000000000000000000000000000000000000000000602082015250565b7f455243313135353a207472616e736665722063616c6c6572206973206e6f742060008201527f6f776e6572206e6f7220617070726f7665640000000000000000000000000000602082015250565b7f43616e6e6f742068617665207a65726f20616464726573730000000000000000600082015250565b7f455243313135353a20696e73756666696369656e742062616c616e636520666f60008201527f72207472616e7366657200000000000000000000000000000000000000000000602082015250565b7f552063616e6e6f7420636c61696d206d6f7265207468616e2031000000000000600082015250565b7f455243313135353a2073657474696e6720617070726f76616c2073746174757360008201527f20666f722073656c660000000000000000000000000000000000000000000000602082015250565b7f455243313135353a206163636f756e747320616e6420696473206c656e67746860008201527f206d69736d617463680000000000000000000000000000000000000000000000602082015250565b7f455243313135353a2069647320616e6420616d6f756e7473206c656e6774682060008201527f6d69736d61746368000000000000000000000000000000000000000000000000602082015250565b7f455243313135353a206d696e7420746f20746865207a65726f2061646472657360008201527f7300000000000000000000000000000000000000000000000000000000000000602082015250565b600060443d1015613727576137aa565b61372f612fa6565b60043d036004823e80513d602482011167ffffffffffffffff821117156137575750506137aa565b808201805167ffffffffffffffff81111561377557505050506137aa565b80602083010160043d0385018111156137925750505050506137aa565b6137a182602001850186613219565b82955050505050505b90565b6137b681613131565b81146137c157600080fd5b50565b6137cd81613143565b81146137d857600080fd5b50565b6137e48161314f565b81146137ef57600080fd5b50565b6137fb8161319b565b811461380657600080fd5b5056fea2646970667358221220d715f43c1b9145d0293d1657c0c6e4def693bdba94b91edc79907755a7ca2f9164736f6c63430008010033",
  "linkReferences": {},
  "deployedLinkReferences": {}
}