{
  "_format": "hh-sol-artifact-1",
  "contractName": "EventMinter",
  "sourceName": "contracts/eventMinter.sol",
  "abi": [
    {
      "inputs": [],
      "stateMutability": "nonpayable",
      "type": "constructor"
    },
    {
      "anonymous": false,
      "inputs": [
        {
          "indexed": true,
          "internalType": "address",
          "name": "account",
          "type": "address"
        },
        {
          "indexed": true,
          "internalType": "address",
          "name": "operator",
          "type": "address"
        },
        {
          "indexed": false,
          "internalType": "bool",
          "name": "approved",
          "type": "bool"
        }
      ],
      "name": "ApprovalForAll",
      "type": "event"
    },
    {
      "anonymous": false,
      "inputs": [
        {
          "indexed": true,
          "internalType": "address",
          "name": "operator",
          "type": "address"
        },
        {
          "indexed": true,
          "internalType": "address",
          "name": "from",
          "type": "address"
        },
        {
          "indexed": true,
          "internalType": "address",
          "name": "to",
          "type": "address"
        },
        {
          "indexed": false,
          "internalType": "uint256[]",
          "name": "ids",
          "type": "uint256[]"
        },
        {
          "indexed": false,
          "internalType": "uint256[]",
          "name": "values",
          "type": "uint256[]"
        }
      ],
      "name": "TransferBatch",
      "type": "event"
    },
    {
      "anonymous": false,
      "inputs": [
        {
          "indexed": true,
          "internalType": "address",
          "name": "operator",
          "type": "address"
        },
        {
          "indexed": true,
          "internalType": "address",
          "name": "from",
          "type": "address"
        },
        {
          "indexed": true,
          "internalType": "address",
          "name": "to",
          "type": "address"
        },
        {
          "indexed": false,
          "internalType": "uint256",
          "name": "id",
          "type": "uint256"
        },
        {
          "indexed": false,
          "internalType": "uint256",
          "name": "value",
          "type": "uint256"
        }
      ],
      "name": "TransferSingle",
      "type": "event"
    },
    {
      "anonymous": false,
      "inputs": [
        {
          "indexed": false,
          "internalType": "string",
          "name": "value",
          "type": "string"
        },
        {
          "indexed": true,
          "internalType": "uint256",
          "name": "id",
          "type": "uint256"
        }
      ],
      "name": "URI",
      "type": "event"
    },
    {
      "inputs": [
        {
          "internalType": "address",
          "name": "account",
          "type": "address"
        },
        {
          "internalType": "uint256",
          "name": "id",
          "type": "uint256"
        }
      ],
      "name": "balanceOf",
      "outputs": [
        {
          "internalType": "uint256",
          "name": "",
          "type": "uint256"
        }
      ],
      "stateMutability": "view",
      "type": "function"
    },
    {
      "inputs": [
        {
          "internalType": "address[]",
          "name": "accounts",
          "type": "address[]"
        },
        {
          "internalType": "uint256[]",
          "name": "ids",
          "type": "uint256[]"
        }
      ],
      "name": "balanceOfBatch",
      "outputs": [
        {
          "internalType": "uint256[]",
          "name": "",
          "type": "uint256[]"
        }
      ],
      "stateMutability": "view",
      "type": "function"
    },
    {
      "inputs": [
        {
          "internalType": "uint256",
          "name": "",
          "type": "uint256"
        }
      ],
      "name": "bodies",
      "outputs": [
        {
          "internalType": "string",
          "name": "URI",
          "type": "string"
        },
        {
          "internalType": "address",
          "name": "bodyowner",
          "type": "address"
        }
      ],
      "stateMutability": "view",
      "type": "function"
    },
    {
      "inputs": [],
      "name": "bodyIds",
      "outputs": [
        {
          "internalType": "uint256",
          "name": "_value",
          "type": "uint256"
        }
      ],
      "stateMutability": "view",
      "type": "function"
    },
    {
      "inputs": [
        {
          "internalType": "uint256",
          "name": "_eventId",
          "type": "uint256"
        }
      ],
      "name": "claim",
      "outputs": [
        {
          "internalType": "bool",
          "name": "",
          "type": "bool"
        }
      ],
      "stateMutability": "payable",
      "type": "function"
    },
    {
      "inputs": [],
      "name": "eventIds",
      "outputs": [
        {
          "internalType": "uint256",
          "name": "_value",
          "type": "uint256"
        }
      ],
      "stateMutability": "view",
      "type": "function"
    },
    {
      "inputs": [
        {
          "internalType": "uint256",
          "name": "",
          "type": "uint256"
        }
      ],
      "name": "events",
      "outputs": [
        {
          "internalType": "string",
          "name": "URI",
          "type": "string"
        },
        {
          "internalType": "address",
          "name": "organizer",
          "type": "address"
        },
        {
          "internalType": "uint256",
          "name": "quantity",
          "type": "uint256"
        }
      ],
      "stateMutability": "view",
      "type": "function"
    },
    {
      "inputs": [
        {
          "internalType": "address",
          "name": "user",
          "type": "address"
        }
      ],
      "name": "getIds",
      "outputs": [
        {
          "internalType": "uint256[]",
          "name": "",
          "type": "uint256[]"
        }
      ],
      "stateMutability": "view",
      "type": "function"
    },
    {
      "inputs": [
        {
          "internalType": "address",
          "name": "account",
          "type": "address"
        },
        {
          "internalType": "address",
          "name": "operator",
          "type": "address"
        }
      ],
      "name": "isApprovedForAll",
      "outputs": [
        {
          "internalType": "bool",
          "name": "",
          "type": "bool"
        }
      ],
      "stateMutability": "view",
      "type": "function"
    },
    {
      "inputs": [
        {
          "internalType": "string",
          "name": "_URI",
          "type": "string"
        }
      ],
      "name": "mintBody",
      "outputs": [
        {
          "internalType": "uint256",
          "name": "",
          "type": "uint256"
        }
      ],
      "stateMutability": "nonpayable",
      "type": "function"
    },
    {
      "inputs": [
        {
          "internalType": "uint256",
          "name": "_quantity",
          "type": "uint256"
        },
        {
          "internalType": "string",
          "name": "_URI",
          "type": "string"
        }
      ],
      "name": "mintEventNFT",
      "outputs": [
        {
          "internalType": "uint256",
          "name": "",
          "type": "uint256"
        }
      ],
      "stateMutability": "nonpayable",
      "type": "function"
    },
    {
      "inputs": [
        {
          "internalType": "address",
          "name": "",
          "type": "address"
        },
        {
          "internalType": "address",
          "name": "",
          "type": "address"
        },
        {
          "internalType": "uint256[]",
          "name": "",
          "type": "uint256[]"
        },
        {
          "internalType": "uint256[]",
          "name": "",
          "type": "uint256[]"
        },
        {
          "internalType": "bytes",
          "name": "",
          "type": "bytes"
        }
      ],
      "name": "onERC1155BatchReceived",
      "outputs": [
        {
          "internalType": "bytes4",
          "name": "",
          "type": "bytes4"
        }
      ],
      "stateMutability": "nonpayable",
      "type": "function"
    },
    {
      "inputs": [
        {
          "internalType": "address",
          "name": "",
          "type": "address"
        },
        {
          "internalType": "address",
          "name": "",
          "type": "address"
        },
        {
          "internalType": "uint256",
          "name": "",
          "type": "uint256"
        },
        {
          "internalType": "uint256",
          "name": "",
          "type": "uint256"
        },
        {
          "internalType": "bytes",
          "name": "",
          "type": "bytes"
        }
      ],
      "name": "onERC1155Received",
      "outputs": [
        {
          "internalType": "bytes4",
          "name": "",
          "type": "bytes4"
        }
      ],
      "stateMutability": "nonpayable",
      "type": "function"
    },
    {
      "inputs": [
        {
          "internalType": "address",
          "name": "from",
          "type": "address"
        },
        {
          "internalType": "address",
          "name": "to",
          "type": "address"
        },
        {
          "internalType": "uint256[]",
          "name": "ids",
          "type": "uint256[]"
        },
        {
          "internalType": "uint256[]",
          "name": "amounts",
          "type": "uint256[]"
        },
        {
          "internalType": "bytes",
          "name": "data",
          "type": "bytes"
        }
      ],
      "name": "safeBatchTransferFrom",
      "outputs": [],
      "stateMutability": "nonpayable",
      "type": "function"
    },
    {
      "inputs": [
        {
          "internalType": "address",
          "name": "from",
          "type": "address"
        },
        {
          "internalType": "address",
          "name": "to",
          "type": "address"
        },
        {
          "internalType": "uint256",
          "name": "id",
          "type": "uint256"
        },
        {
          "internalType": "uint256",
          "name": "amount",
          "type": "uint256"
        },
        {
          "internalType": "bytes",
          "name": "data",
          "type": "bytes"
        }
      ],
      "name": "safeTransferFrom",
      "outputs": [],
      "stateMutability": "nonpayable",
      "type": "function"
    },
    {
      "inputs": [
        {
          "internalType": "address",
          "name": "operator",
          "type": "address"
        },
        {
          "internalType": "bool",
          "name": "approved",
          "type": "bool"
        }
      ],
      "name": "setApprovalForAll",
      "outputs": [],
      "stateMutability": "nonpayable",
      "type": "function"
    },
    {
      "inputs": [
        {
          "internalType": "bytes4",
          "name": "interfaceId",
          "type": "bytes4"
        }
      ],
      "name": "supportsInterface",
      "outputs": [
        {
          "internalType": "bool",
          "name": "",
          "type": "bool"
        }
      ],
      "stateMutability": "view",
      "type": "function"
    },
    {
      "inputs": [
        {
          "internalType": "uint256",
          "name": "_eventId",
          "type": "uint256"
        }
      ],
      "name": "tokenURI",
      "outputs": [
        {
          "internalType": "string",
          "name": "",
          "type": "string"
        }
      ],
      "stateMutability": "view",
      "type": "function"
    },
    {
      "inputs": [
        {
          "internalType": "uint256",
          "name": "",
          "type": "uint256"
        }
      ],
      "name": "uri",
      "outputs": [
        {
          "internalType": "string",
          "name": "",
          "type": "string"
        }
      ],
      "stateMutability": "view",
      "type": "function"
    }
  ],
  "bytecode": "0x60806040523480156200001157600080fd5b506040518060200160405280600081525062000033816200007b60201b60201c565b5033600360006101000a81548173ffffffffffffffffffffffffffffffffffffffff021916908373ffffffffffffffffffffffffffffffffffffffff160217905550620001ac565b80600290805190602001906200009392919062000097565b5050565b828054620000a59062000147565b90600052602060002090601f016020900481019282620000c9576000855562000115565b82601f10620000e457805160ff191683800117855562000115565b8280016001018555821562000115579182015b8281111562000114578251825591602001919060010190620000f7565b5b50905062000124919062000128565b5090565b5b808211156200014357600081600090555060010162000129565b5090565b600060028204905060018216806200016057607f821691505b602082108114156200017757620001766200017d565b5b50919050565b7f4e487b7100000000000000000000000000000000000000000000000000000000600052602260045260246000fd5b6137dd80620001bc6000396000f3fe6080604052600436106101135760003560e01c806344cee73c116100a0578063bc197c8111610064578063bc197c8114610418578063c87b56dd14610455578063e985e9c514610492578063f23a6e61146104cf578063f242432a1461050c57610113565b806344cee73c1461030c5780634e1273f41461034a5780636b1bedae1461038757806378883077146103c4578063a22cb465146103ef57610113565b80630e89341c116100e75780630e89341c146101fc5780632671b0d8146102395780632eb2c2d614610276578063364be2f21461029f578063379607f5146102dc57610113565b8062fdd58e1461011857806301ffc9a71461015557806308eae5a6146101925780630b791430146101bd575b600080fd5b34801561012457600080fd5b5061013f600480360381019061013a91906126b2565b610535565b60405161014c9190612ee5565b60405180910390f35b34801561016157600080fd5b5061017c6004803603810190610177919061275a565b6105fe565b6040516101899190612c7f565b60405180910390f35b34801561019e57600080fd5b506101a7610610565b6040516101b49190612ee5565b60405180910390f35b3480156101c957600080fd5b506101e460048036038101906101df91906127ed565b61061c565b6040516101f393929190612d07565b60405180910390f35b34801561020857600080fd5b50610223600480360381019061021e91906127ed565b6106ee565b6040516102309190612cb5565b60405180910390f35b34801561024557600080fd5b50610260600480360381019061025b91906124c3565b610782565b60405161026d9190612c26565b60405180910390f35b34801561028257600080fd5b5061029d60048036038101906102989190612528565b610819565b005b3480156102ab57600080fd5b506102c660048036038101906102c19190612816565b6108ba565b6040516102d39190612ee5565b60405180910390f35b6102f660048036038101906102f191906127ed565b6109b8565b6040516103039190612c7f565b60405180910390f35b34801561031857600080fd5b50610333600480360381019061032e91906127ed565b610b8b565b604051610341929190612cd7565b60405180910390f35b34801561035657600080fd5b50610371600480360381019061036c91906126ee565b610c57565b60405161037e9190612c26565b60405180910390f35b34801561039357600080fd5b506103ae60048036038101906103a991906127ac565b610e08565b6040516103bb9190612ee5565b60405180910390f35b3480156103d057600080fd5b506103d9610f2f565b6040516103e69190612ee5565b60405180910390f35b3480156103fb57600080fd5b5061041660048036038101906104119190612676565b610f3b565b005b34801561042457600080fd5b5061043f600480360381019061043a9190612528565b610f51565b60405161044c9190612c9a565b60405180910390f35b34801561046157600080fd5b5061047c600480360381019061047791906127ed565b610f66565b6040516104899190612cb5565b60405180910390f35b34801561049e57600080fd5b506104b960048036038101906104b491906124ec565b61100e565b6040516104c69190612c7f565b60405180910390f35b3480156104db57600080fd5b506104f660048036038101906104f191906125e7565b6110a2565b6040516105039190612c9a565b60405180910390f35b34801561051857600080fd5b50610533600480360381019061052e91906125e7565b6110b7565b005b60008073ffffffffffffffffffffffffffffffffffffffff168373ffffffffffffffffffffffffffffffffffffffff1614156105a6576040517f08c379a000000000000000000000000000000000000000000000000000000000815260040161059d90612d85565b60405180910390fd5b60008083815260200190815260200160002060008473ffffffffffffffffffffffffffffffffffffffff1673ffffffffffffffffffffffffffffffffffffffff16815260200190815260200160002054905092915050565b600061060982611158565b9050919050565b60058060000154905081565b600660205280600052604060002060009150905080600001805461063f90613185565b80601f016020809104026020016040519081016040528092919081815260200182805461066b90613185565b80156106b85780601f1061068d576101008083540402835291602001916106b8565b820191906000526020600020905b81548152906001019060200180831161069b57829003601f168201915b5050505050908060010160009054906101000a900473ffffffffffffffffffffffffffffffffffffffff16908060020154905083565b6060600280546106fd90613185565b80601f016020809104026020016040519081016040528092919081815260200182805461072990613185565b80156107765780601f1061074b57610100808354040283529160200191610776565b820191906000526020600020905b81548152906001019060200180831161075957829003601f168201915b50505050509050919050565b6060600860008373ffffffffffffffffffffffffffffffffffffffff1673ffffffffffffffffffffffffffffffffffffffff16815260200190815260200160002080548060200260200160405190810160405280929190818152602001828054801561080d57602002820191906000526020600020905b8154815260200190600101908083116107f9575b50505050509050919050565b6108216111d2565b73ffffffffffffffffffffffffffffffffffffffff168573ffffffffffffffffffffffffffffffffffffffff1614806108675750610866856108616111d2565b61100e565b5b6108a6576040517f08c379a000000000000000000000000000000000000000000000000000000000815260040161089d90612de5565b60405180910390fd5b6108b385858585856111da565b5050505050565b6000806108c76004611548565b905060405180606001604052808481526020013373ffffffffffffffffffffffffffffffffffffffff168152602001858152506006600083815260200190815260200160002060008201518160000190805190602001906109299291906121bb565b5060208201518160010160006101000a81548173ffffffffffffffffffffffffffffffffffffffff021916908373ffffffffffffffffffffffffffffffffffffffff1602179055506040820151816002015590505061099930828660405180602001604052806000815250611556565b6109a4306001610f3b565b6109ae6004611707565b8091505092915050565b60008073ffffffffffffffffffffffffffffffffffffffff163373ffffffffffffffffffffffffffffffffffffffff161415610a29576040517f08c379a0000000000000000000000000000000000000000000000000000000008152600401610a2090612e05565b60405180910390fd5b610ac0600860003373ffffffffffffffffffffffffffffffffffffffff1673ffffffffffffffffffffffffffffffffffffffff168152602001908152602001600020805480602002602001604051908101604052809291908181526020018280548015610ab557602002820191906000526020600020905b815481526020019060010190808311610aa1575b50505050508361171d565b610aff576040517f08c379a0000000000000000000000000000000000000000000000000000000008152600401610af690612e45565b60405180910390fd5b610b1c30338460016040518060200160405280600081525061179f565b600860003373ffffffffffffffffffffffffffffffffffffffff1673ffffffffffffffffffffffffffffffffffffffff16815260200190815260200160002082908060018154018082558091505060019003906000526020600020016000909190919091505560019050919050565b6007602052806000526040600020600091509050806000018054610bae90613185565b80601f0160208091040260200160405190810160405280929190818152602001828054610bda90613185565b8015610c275780601f10610bfc57610100808354040283529160200191610c27565b820191906000526020600020905b815481529060010190602001808311610c0a57829003601f168201915b5050505050908060010160009054906101000a900473ffffffffffffffffffffffffffffffffffffffff16905082565b60608151835114610c9d576040517f08c379a0000000000000000000000000000000000000000000000000000000008152600401610c9490612e85565b60405180910390fd5b6000835167ffffffffffffffff811115610ce0577f4e487b7100000000000000000000000000000000000000000000000000000000600052604160045260246000fd5b604051908082528060200260200182016040528015610d0e5781602001602082028036833780820191505090505b50905060005b8451811015610dfd57610da7858281518110610d59577f4e487b7100000000000000000000000000000000000000000000000000000000600052603260045260246000fd5b6020026020010151858381518110610d9a577f4e487b7100000000000000000000000000000000000000000000000000000000600052603260045260246000fd5b6020026020010151610535565b828281518110610de0577f4e487b7100000000000000000000000000000000000000000000000000000000600052603260045260246000fd5b60200260200101818152505080610df6906131e8565b9050610d14565b508091505092915050565b600080610e156005611548565b905060405180604001604052808481526020013373ffffffffffffffffffffffffffffffffffffffff16815250600760008381526020019081526020016000206000820151816000019080519060200190610e719291906121bb565b5060208201518160010160006101000a81548173ffffffffffffffffffffffffffffffffffffffff021916908373ffffffffffffffffffffffffffffffffffffffff160217905550905050610ed83382600160405180602001604052806000815250611556565b610ee26005611707565b80600960003373ffffffffffffffffffffffffffffffffffffffff1673ffffffffffffffffffffffffffffffffffffffff1681526020019081526020016000208190555080915050919050565b60048060000154905081565b610f4d610f466111d2565b8383611a3b565b5050565b600063bc197c8160e01b905095945050505050565b6060600660008381526020019081526020016000206000018054610f8990613185565b80601f0160208091040260200160405190810160405280929190818152602001828054610fb590613185565b80156110025780601f10610fd757610100808354040283529160200191611002565b820191906000526020600020905b815481529060010190602001808311610fe557829003601f168201915b50505050509050919050565b6000600160008473ffffffffffffffffffffffffffffffffffffffff1673ffffffffffffffffffffffffffffffffffffffff16815260200190815260200160002060008373ffffffffffffffffffffffffffffffffffffffff1673ffffffffffffffffffffffffffffffffffffffff16815260200190815260200160002060009054906101000a900460ff16905092915050565b600063f23a6e6160e01b905095945050505050565b6110bf6111d2565b73ffffffffffffffffffffffffffffffffffffffff168573ffffffffffffffffffffffffffffffffffffffff1614806111055750611104856110ff6111d2565b61100e565b5b611144576040517f08c379a000000000000000000000000000000000000000000000000000000000815260040161113b90612da5565b60405180910390fd5b611151858585858561179f565b5050505050565b60007f4e2312e0000000000000000000000000000000000000000000000000000000007bffffffffffffffffffffffffffffffffffffffffffffffffffffffff1916827bffffffffffffffffffffffffffffffffffffffffffffffffffffffff191614806111cb57506111ca82611ba8565b5b9050919050565b600033905090565b815183511461121e576040517f08c379a000000000000000000000000000000000000000000000000000000000815260040161121590612ea5565b60405180910390fd5b600073ffffffffffffffffffffffffffffffffffffffff168473ffffffffffffffffffffffffffffffffffffffff16141561128e576040517f08c379a000000000000000000000000000000000000000000000000000000000815260040161128590612dc5565b60405180910390fd5b60006112986111d2565b90506112a8818787878787611c8a565b60005b84518110156114a55760008582815181106112ef577f4e487b7100000000000000000000000000000000000000000000000000000000600052603260045260246000fd5b602002602001015190506000858381518110611334577f4e487b7100000000000000000000000000000000000000000000000000000000600052603260045260246000fd5b60200260200101519050600080600084815260200190815260200160002060008b73ffffffffffffffffffffffffffffffffffffffff1673ffffffffffffffffffffffffffffffffffffffff168152602001908152602001600020549050818110156113d5576040517f08c379a00000000000000000000000000000000000000000000000000000000081526004016113cc90612e25565b60405180910390fd5b81810360008085815260200190815260200160002060008c73ffffffffffffffffffffffffffffffffffffffff1673ffffffffffffffffffffffffffffffffffffffff168152602001908152602001600020819055508160008085815260200190815260200160002060008b73ffffffffffffffffffffffffffffffffffffffff1673ffffffffffffffffffffffffffffffffffffffff168152602001908152602001600020600082825461148a9190613079565b925050819055505050508061149e906131e8565b90506112ab565b508473ffffffffffffffffffffffffffffffffffffffff168673ffffffffffffffffffffffffffffffffffffffff168273ffffffffffffffffffffffffffffffffffffffff167f4a39dc06d4c0dbc64b70af90fd698a233a518aa5d07e595d983b8c0526c8f7fb878760405161151c929190612c48565b60405180910390a4611532818787878787611c92565b611540818787878787611c9a565b505050505050565b600081600001549050919050565b600073ffffffffffffffffffffffffffffffffffffffff168473ffffffffffffffffffffffffffffffffffffffff1614156115c6576040517f08c379a00000000000000000000000000000000000000000000000000000000081526004016115bd90612ec5565b60405180910390fd5b60006115d06111d2565b905060006115dd85611e81565b905060006115ea85611e81565b90506115fb83600089858589611c8a565b8460008088815260200190815260200160002060008973ffffffffffffffffffffffffffffffffffffffff1673ffffffffffffffffffffffffffffffffffffffff168152602001908152602001600020600082825461165a9190613079565b925050819055508673ffffffffffffffffffffffffffffffffffffffff16600073ffffffffffffffffffffffffffffffffffffffff168473ffffffffffffffffffffffffffffffffffffffff167fc3d58168c5ae7397731d063d5bbf3d657854427343f4c083240f7aacaa2d0f6289896040516116d8929190612f00565b60405180910390a46116ef83600089858589611c92565b6116fe83600089898989611f47565b50505050505050565b6001816000016000828254019250508190555050565b600080600090505b835181101561179357838181518110611767577f4e487b7100000000000000000000000000000000000000000000000000000000600052603260045260246000fd5b6020026020010151831415611780576000915050611799565b808061178b906131e8565b915050611725565b50600190505b92915050565b600073ffffffffffffffffffffffffffffffffffffffff168473ffffffffffffffffffffffffffffffffffffffff16141561180f576040517f08c379a000000000000000000000000000000000000000000000000000000000815260040161180690612dc5565b60405180910390fd5b60006118196111d2565b9050600061182685611e81565b9050600061183385611e81565b9050611843838989858589611c8a565b600080600088815260200190815260200160002060008a73ffffffffffffffffffffffffffffffffffffffff1673ffffffffffffffffffffffffffffffffffffffff168152602001908152602001600020549050858110156118da576040517f08c379a00000000000000000000000000000000000000000000000000000000081526004016118d190612e25565b60405180910390fd5b85810360008089815260200190815260200160002060008b73ffffffffffffffffffffffffffffffffffffffff1673ffffffffffffffffffffffffffffffffffffffff168152602001908152602001600020819055508560008089815260200190815260200160002060008a73ffffffffffffffffffffffffffffffffffffffff1673ffffffffffffffffffffffffffffffffffffffff168152602001908152602001600020600082825461198f9190613079565b925050819055508773ffffffffffffffffffffffffffffffffffffffff168973ffffffffffffffffffffffffffffffffffffffff168573ffffffffffffffffffffffffffffffffffffffff167fc3d58168c5ae7397731d063d5bbf3d657854427343f4c083240f7aacaa2d0f628a8a604051611a0c929190612f00565b60405180910390a4611a22848a8a86868a611c92565b611a30848a8a8a8a8a611f47565b505050505050505050565b8173ffffffffffffffffffffffffffffffffffffffff168373ffffffffffffffffffffffffffffffffffffffff161415611aaa576040517f08c379a0000000000000000000000000000000000000000000000000000000008152600401611aa190612e65565b60405180910390fd5b80600160008573ffffffffffffffffffffffffffffffffffffffff1673ffffffffffffffffffffffffffffffffffffffff16815260200190815260200160002060008473ffffffffffffffffffffffffffffffffffffffff1673ffffffffffffffffffffffffffffffffffffffff16815260200190815260200160002060006101000a81548160ff0219169083151502179055508173ffffffffffffffffffffffffffffffffffffffff168373ffffffffffffffffffffffffffffffffffffffff167f17307eab39ab6107e8899845ad3d59bd9653f200f220920489ca2b5937696c3183604051611b9b9190612c7f565b60405180910390a3505050565b60007fd9b67a26000000000000000000000000000000000000000000000000000000007bffffffffffffffffffffffffffffffffffffffffffffffffffffffff1916827bffffffffffffffffffffffffffffffffffffffffffffffffffffffff19161480611c7357507f0e89341c000000000000000000000000000000000000000000000000000000007bffffffffffffffffffffffffffffffffffffffffffffffffffffffff1916827bffffffffffffffffffffffffffffffffffffffffffffffffffffffff1916145b80611c835750611c828261212e565b5b9050919050565b505050505050565b505050505050565b611cb98473ffffffffffffffffffffffffffffffffffffffff16612198565b15611e79578373ffffffffffffffffffffffffffffffffffffffff1663bc197c8187878686866040518663ffffffff1660e01b8152600401611cff959493929190612b64565b602060405180830381600087803b158015611d1957600080fd5b505af1925050508015611d4a57506040513d601f19601f82011682018060405250810190611d479190612783565b60015b611df057611d566132be565b806308c379a01415611db35750611d6b6136b5565b80611d765750611db5565b806040517f08c379a0000000000000000000000000000000000000000000000000000000008152600401611daa9190612cb5565b60405180910390fd5b505b6040517f08c379a0000000000000000000000000000000000000000000000000000000008152600401611de790612d45565b60405180910390fd5b63bc197c8160e01b7bffffffffffffffffffffffffffffffffffffffffffffffffffffffff1916817bffffffffffffffffffffffffffffffffffffffffffffffffffffffff191614611e77576040517f08c379a0000000000000000000000000000000000000000000000000000000008152600401611e6e90612d65565b60405180910390fd5b505b505050505050565b60606000600167ffffffffffffffff811115611ec6577f4e487b7100000000000000000000000000000000000000000000000000000000600052604160045260246000fd5b604051908082528060200260200182016040528015611ef45781602001602082028036833780820191505090505b5090508281600081518110611f32577f4e487b7100000000000000000000000000000000000000000000000000000000600052603260045260246000fd5b60200260200101818152505080915050919050565b611f668473ffffffffffffffffffffffffffffffffffffffff16612198565b15612126578373ffffffffffffffffffffffffffffffffffffffff1663f23a6e6187878686866040518663ffffffff1660e01b8152600401611fac959493929190612bcc565b602060405180830381600087803b158015611fc657600080fd5b505af1925050508015611ff757506040513d601f19601f82011682018060405250810190611ff49190612783565b60015b61209d576120036132be565b806308c379a0141561206057506120186136b5565b806120235750612062565b806040517f08c379a00000000000000000000000000000000000000000000000000000000081526004016120579190612cb5565b60405180910390fd5b505b6040517f08c379a000000000000000000000000000000000000000000000000000000000815260040161209490612d45565b60405180910390fd5b63f23a6e6160e01b7bffffffffffffffffffffffffffffffffffffffffffffffffffffffff1916817bffffffffffffffffffffffffffffffffffffffffffffffffffffffff191614612124576040517f08c379a000000000000000000000000000000000000000000000000000000000815260040161211b90612d65565b60405180910390fd5b505b505050505050565b60007f01ffc9a7000000000000000000000000000000000000000000000000000000007bffffffffffffffffffffffffffffffffffffffffffffffffffffffff1916827bffffffffffffffffffffffffffffffffffffffffffffffffffffffff1916149050919050565b6000808273ffffffffffffffffffffffffffffffffffffffff163b119050919050565b8280546121c790613185565b90600052602060002090601f0160209004810192826121e95760008555612230565b82601f1061220257805160ff1916838001178555612230565b82800160010185558215612230579182015b8281111561222f578251825591602001919060010190612214565b5b50905061223d9190612241565b5090565b5b8082111561225a576000816000905550600101612242565b5090565b600061227161226c84612f4e565b612f29565b9050808382526020820190508285602086028201111561229057600080fd5b60005b858110156122c057816122a688826123b2565b845260208401935060208301925050600181019050612293565b5050509392505050565b60006122dd6122d884612f7a565b612f29565b905080838252602082019050828560208602820111156122fc57600080fd5b60005b8581101561232c578161231288826124ae565b8452602084019350602083019250506001810190506122ff565b5050509392505050565b600061234961234484612fa6565b612f29565b90508281526020810184848401111561236157600080fd5b61236c848285613143565b509392505050565b600061238761238284612fd7565b612f29565b90508281526020810184848401111561239f57600080fd5b6123aa848285613143565b509392505050565b6000813590506123c18161374b565b92915050565b600082601f8301126123d857600080fd5b81356123e884826020860161225e565b91505092915050565b600082601f83011261240257600080fd5b81356124128482602086016122ca565b91505092915050565b60008135905061242a81613762565b92915050565b60008135905061243f81613779565b92915050565b60008151905061245481613779565b92915050565b600082601f83011261246b57600080fd5b813561247b848260208601612336565b91505092915050565b600082601f83011261249557600080fd5b81356124a5848260208601612374565b91505092915050565b6000813590506124bd81613790565b92915050565b6000602082840312156124d557600080fd5b60006124e3848285016123b2565b91505092915050565b600080604083850312156124ff57600080fd5b600061250d858286016123b2565b925050602061251e858286016123b2565b9150509250929050565b600080600080600060a0868803121561254057600080fd5b600061254e888289016123b2565b955050602061255f888289016123b2565b945050604086013567ffffffffffffffff81111561257c57600080fd5b612588888289016123f1565b935050606086013567ffffffffffffffff8111156125a557600080fd5b6125b1888289016123f1565b925050608086013567ffffffffffffffff8111156125ce57600080fd5b6125da8882890161245a565b9150509295509295909350565b600080600080600060a086880312156125ff57600080fd5b600061260d888289016123b2565b955050602061261e888289016123b2565b945050604061262f888289016124ae565b9350506060612640888289016124ae565b925050608086013567ffffffffffffffff81111561265d57600080fd5b6126698882890161245a565b9150509295509295909350565b6000806040838503121561268957600080fd5b6000612697858286016123b2565b92505060206126a88582860161241b565b9150509250929050565b600080604083850312156126c557600080fd5b60006126d3858286016123b2565b92505060206126e4858286016124ae565b9150509250929050565b6000806040838503121561270157600080fd5b600083013567ffffffffffffffff81111561271b57600080fd5b612727858286016123c7565b925050602083013567ffffffffffffffff81111561274457600080fd5b612750858286016123f1565b9150509250929050565b60006020828403121561276c57600080fd5b600061277a84828501612430565b91505092915050565b60006020828403121561279557600080fd5b60006127a384828501612445565b91505092915050565b6000602082840312156127be57600080fd5b600082013567ffffffffffffffff8111156127d857600080fd5b6127e484828501612484565b91505092915050565b6000602082840312156127ff57600080fd5b600061280d848285016124ae565b91505092915050565b6000806040838503121561282957600080fd5b6000612837858286016124ae565b925050602083013567ffffffffffffffff81111561285457600080fd5b61286085828601612484565b9150509250929050565b60006128768383612b46565b60208301905092915050565b61288b816130cf565b82525050565b600061289c82613018565b6128a68185613046565b93506128b183613008565b8060005b838110156128e25781516128c9888261286a565b97506128d483613039565b9250506001810190506128b5565b5085935050505092915050565b6128f8816130e1565b82525050565b612907816130ed565b82525050565b600061291882613023565b6129228185613057565b9350612932818560208601613152565b61293b816132e0565b840191505092915050565b60006129518261302e565b61295b8185613068565b935061296b818560208601613152565b612974816132e0565b840191505092915050565b600061298c603483613068565b9150612997826132fe565b604082019050919050565b60006129af602883613068565b91506129ba8261334d565b604082019050919050565b60006129d2602b83613068565b91506129dd8261339c565b604082019050919050565b60006129f5602983613068565b9150612a00826133eb565b604082019050919050565b6000612a18602583613068565b9150612a238261343a565b604082019050919050565b6000612a3b603283613068565b9150612a4682613489565b604082019050919050565b6000612a5e601883613068565b9150612a69826134d8565b602082019050919050565b6000612a81602a83613068565b9150612a8c82613501565b604082019050919050565b6000612aa4601a83613068565b9150612aaf82613550565b602082019050919050565b6000612ac7602983613068565b9150612ad282613579565b604082019050919050565b6000612aea602983613068565b9150612af5826135c8565b604082019050919050565b6000612b0d602883613068565b9150612b1882613617565b604082019050919050565b6000612b30602183613068565b9150612b3b82613666565b604082019050919050565b612b4f81613139565b82525050565b612b5e81613139565b82525050565b600060a082019050612b796000830188612882565b612b866020830187612882565b8181036040830152612b988186612891565b90508181036060830152612bac8185612891565b90508181036080830152612bc0818461290d565b90509695505050505050565b600060a082019050612be16000830188612882565b612bee6020830187612882565b612bfb6040830186612b55565b612c086060830185612b55565b8181036080830152612c1a818461290d565b90509695505050505050565b60006020820190508181036000830152612c408184612891565b905092915050565b60006040820190508181036000830152612c628185612891565b90508181036020830152612c768184612891565b90509392505050565b6000602082019050612c9460008301846128ef565b92915050565b6000602082019050612caf60008301846128fe565b92915050565b60006020820190508181036000830152612ccf8184612946565b905092915050565b60006040820190508181036000830152612cf18185612946565b9050612d006020830184612882565b9392505050565b60006060820190508181036000830152612d218186612946565b9050612d306020830185612882565b612d3d6040830184612b55565b949350505050565b60006020820190508181036000830152612d5e8161297f565b9050919050565b60006020820190508181036000830152612d7e816129a2565b9050919050565b60006020820190508181036000830152612d9e816129c5565b9050919050565b60006020820190508181036000830152612dbe816129e8565b9050919050565b60006020820190508181036000830152612dde81612a0b565b9050919050565b60006020820190508181036000830152612dfe81612a2e565b9050919050565b60006020820190508181036000830152612e1e81612a51565b9050919050565b60006020820190508181036000830152612e3e81612a74565b9050919050565b60006020820190508181036000830152612e5e81612a97565b9050919050565b60006020820190508181036000830152612e7e81612aba565b9050919050565b60006020820190508181036000830152612e9e81612add565b9050919050565b60006020820190508181036000830152612ebe81612b00565b9050919050565b60006020820190508181036000830152612ede81612b23565b9050919050565b6000602082019050612efa6000830184612b55565b92915050565b6000604082019050612f156000830185612b55565b612f226020830184612b55565b9392505050565b6000612f33612f44565b9050612f3f82826131b7565b919050565b6000604051905090565b600067ffffffffffffffff821115612f6957612f6861328f565b5b602082029050602081019050919050565b600067ffffffffffffffff821115612f9557612f9461328f565b5b602082029050602081019050919050565b600067ffffffffffffffff821115612fc157612fc061328f565b5b612fca826132e0565b9050602081019050919050565b600067ffffffffffffffff821115612ff257612ff161328f565b5b612ffb826132e0565b9050602081019050919050565b6000819050602082019050919050565b600081519050919050565b600081519050919050565b600081519050919050565b6000602082019050919050565b600082825260208201905092915050565b600082825260208201905092915050565b600082825260208201905092915050565b600061308482613139565b915061308f83613139565b9250827fffffffffffffffffffffffffffffffffffffffffffffffffffffffffffffffff038211156130c4576130c3613231565b5b828201905092915050565b60006130da82613119565b9050919050565b60008115159050919050565b60007fffffffff0000000000000000000000000000000000000000000000000000000082169050919050565b600073ffffffffffffffffffffffffffffffffffffffff82169050919050565b6000819050919050565b82818337600083830152505050565b60005b83811015613170578082015181840152602081019050613155565b8381111561317f576000848401525b50505050565b6000600282049050600182168061319d57607f821691505b602082108114156131b1576131b0613260565b5b50919050565b6131c0826132e0565b810181811067ffffffffffffffff821117156131df576131de61328f565b5b80604052505050565b60006131f382613139565b91507fffffffffffffffffffffffffffffffffffffffffffffffffffffffffffffffff82141561322657613225613231565b5b600182019050919050565b7f4e487b7100000000000000000000000000000000000000000000000000000000600052601160045260246000fd5b7f4e487b7100000000000000000000000000000000000000000000000000000000600052602260045260246000fd5b7f4e487b7100000000000000000000000000000000000000000000000000000000600052604160045260246000fd5b600060033d11156132dd5760046000803e6132da6000516132f1565b90505b90565b6000601f19601f8301169050919050565b60008160e01c9050919050565b7f455243313135353a207472616e7366657220746f206e6f6e204552433131353560008201527f526563656976657220696d706c656d656e746572000000000000000000000000602082015250565b7f455243313135353a204552433131353552656365697665722072656a6563746560008201527f6420746f6b656e73000000000000000000000000000000000000000000000000602082015250565b7f455243313135353a2062616c616e636520717565727920666f7220746865207a60008201527f65726f2061646472657373000000000000000000000000000000000000000000602082015250565b7f455243313135353a2063616c6c6572206973206e6f74206f776e6572206e6f7260008201527f20617070726f7665640000000000000000000000000000000000000000000000602082015250565b7f455243313135353a207472616e7366657220746f20746865207a65726f20616460008201527f6472657373000000000000000000000000000000000000000000000000000000602082015250565b7f455243313135353a207472616e736665722063616c6c6572206973206e6f742060008201527f6f776e6572206e6f7220617070726f7665640000000000000000000000000000602082015250565b7f43616e6e6f742068617665207a65726f20616464726573730000000000000000600082015250565b7f455243313135353a20696e73756666696369656e742062616c616e636520666f60008201527f72207472616e7366657200000000000000000000000000000000000000000000602082015250565b7f552063616e6e6f7420636c61696d206d6f7265207468616e2031000000000000600082015250565b7f455243313135353a2073657474696e6720617070726f76616c2073746174757360008201527f20666f722073656c660000000000000000000000000000000000000000000000602082015250565b7f455243313135353a206163636f756e747320616e6420696473206c656e67746860008201527f206d69736d617463680000000000000000000000000000000000000000000000602082015250565b7f455243313135353a2069647320616e6420616d6f756e7473206c656e6774682060008201527f6d69736d61746368000000000000000000000000000000000000000000000000602082015250565b7f455243313135353a206d696e7420746f20746865207a65726f2061646472657360008201527f7300000000000000000000000000000000000000000000000000000000000000602082015250565b600060443d10156136c557613748565b6136cd612f44565b60043d036004823e80513d602482011167ffffffffffffffff821117156136f5575050613748565b808201805167ffffffffffffffff8111156137135750505050613748565b80602083010160043d038501811115613730575050505050613748565b61373f826020018501866131b7565b82955050505050505b90565b613754816130cf565b811461375f57600080fd5b50565b61376b816130e1565b811461377657600080fd5b50565b613782816130ed565b811461378d57600080fd5b50565b61379981613139565b81146137a457600080fd5b5056fea26469706673582212209bbd21ee4fc33b6dec074718c0deab164aebd01753177e96de1e90f32f29063264736f6c63430008010033",
  "linkReferences": {},
  "deployedLinkReferences": {}
}